:0200000480007A
:10000000970200009382C20D73905230930000005B
:10001000130100009301000013020000930200008E
:100020001303000093030000130400009304000076
:10003000130500009305000013060000930600005E
:100040001307000093070000130800009308000046
:100050001309000093090000130A0000930A00002E
:10006000130B0000930B0000130C0000930C000016
:10007000130D0000930D0000130E0000930E0000FE
:10008000130F0000930F0000B7E2010073A00230CD
:10009000F322103063D602001305204D6F0010309C
:1000A00097510000938181A3177200001302B2469A
:1000B000137202FC732540F1131615013302C200BE
:1000C000130115001311110133014100EF10C00994
:1000D00093050500732540F16F005068130101EF8F
:1000E000232211002324210023263100232841004C
:1000F000232A5100232C6100232E7100232081022A
:10010000232291022324A1022326B1022328C10223
:10011000232AD102232CE102232EF1022320010500
:1001200023221105232421052326310523284105F7
:10013000232A5105232C6105232E710523208107D5
:10014000232291072324A1072326B1072328C107CF
:10015000232AD107232CE107232EF107732520340E
:10016000F325103413060100EF00502573101534E9
:10017000B72200009382028073A0023083204100E6
:10018000032181008321C100032201018322410157
:10019000032381018323C10103240102832441023B
:1001A000032581028325C10203260103832641031F
:1001B000032781038327C103032801048328410403
:1001C000032981048329C104032A0105832A4105E7
:1001D000032B8105832BC105032C0106832C4106CB
:1001E000032D8106832DC106032E0107832E4107AF
:1001F000032F8107832FC1071301011173002030E2
:1002000017570000034717AE930710046304F70065
:10021000678000008327050017570000130707AD0C
:100220000327070093879700B387E7402320F50053
:1002300067800000975700009387C7AB03A60700AD
:1002400063080600032706002320E50003A6070035
:1002500097570000938787A983A507001306C60058
:100260001305A0006F00401B130101FF2320210193
:1002700017590000130909A88327090023248100C6
:100280000324050003A707002322910083AE470043
:1002900003AE870003A3070183A8470103A88701D2
:1002A00083A5070203A6470283A68702232611001F
:1002B0009304050003A5C70183A7C7022320E40018
:1002C00003A70400232EA4002326F4022322D40132
:1002D000930750002324C40123286400232A140117
:1002E000232C04012320B4022322C4022324D40299
:1002F00023A6F4002326F4002320E40013050400C1
:10030000EFF05FF3832744006380070883A70400AE
:100310008320C1000324810083AF070003AF47009F
:1003200083AE870003AEC70003A3070183A847017C
:1003300003A8870183A5C70103A6070283A6470276
:1003400003A7870283A7C70223A0F40123A2E40125
:1003500023A4D40123A6C40123A8640023AA140162
:1003600023AC040123AEB40023A0C40223A2D40210
:1003700023A4E40223A6F4020329010083244100FC
:10038000130101016780000003A58400930760004A
:10039000930584002326F400EF00801983270900C9
:1003A0000325C4001306C40083A707008320C100EF
:1003B000832441002320F400032481000329010049
:1003C0009305A000130101016F00000517570000FD
:1003D00013078791832607009757000083C79790DC
:1003E0009387F7FB93B71700B3E7D7002320F700F5
:1003F00093072004175700002306F78E678000003C
:100400009307100417570000A30EF78C97570000AE
:1004100023AC078C6780000013052500B305B500E9
:100420002320B600678000001307560093171700BB
:10043000B387E70093973700B387E70093973700B8
:100440001316260013182700330505013388C7004B
:100450002320D5002322D500232CE506B3860501F1
:1004600003A8060123AAE60023ACE6001307180040
:1004700023A8E60003270500B385F500B385C50072
:10048000B7170000B385B7009307500023AAE5FA19
:1004900017570000232CF784678000001375F50FB1
:1004A00093F5F50F6306B5001305000067800000A3
:1004B00097570000A388A7821305100067800000EB
:1004C000130101FF23248100232291002326110020
:1004D000130405009384050083C5340003452400FC
:1004E000EFF0DFFBE31A05FE93850400130504001B
:1004F000EF00D03A93070000635AA0009307A000D2
:10050000174700002324F77E930710008320C100C3
:100510000324810083244100138507001301010196
:10052000678000001305E5FF1335150067800000A4
:10053000130101FF232481002322910023261100AF
:100540001304050093840500EFF0DFFD630E050240
:1005500023A08400130710006300E404630804046C
:10056000930720006300F406130740006314E400BF
:1005700023A0F4008320C1000324810083244100D0
:1005800013010101678000009307300023A0F400ED
:1005900013071000E314E4FC9747000093870775E6
:1005A00003A707009307400663DAE7028320C10030
:1005B0000324810023A004008324410013010101CE
:1005C000678000008320C1000324810023A0E40091
:1005D000832441001301010167800000930730006C
:1005E00023A0F4006FF01FF9130101FE2322B100D4
:1005F0002324C1002326D1002328E100232AF1006F
:10060000232C0101232E1101130101026780000038
:10061000130101FF23248100232611009307A0006A
:10062000130405006300F502B70700FF23A087004D
:100630008320C10003248100130500001301010180
:10064000678000001305D000EFF09FFCB70700FFA4
:1006500023A087008320C10003248100130500002C
:100660001301010167800000130101EB2320A11396
:10067000370D00409307FDFF23248114232291149A
:100680002320211523261114232E3113232C41134B
:10069000232A511323286113232671132324811342
:1006A00023229113232EB111130905009384050011
:1006B000130406002324D1002326F100034504007F
:1006C000930750026304F502630A0506930950027A
:1006D0006F00800063040506938504001304140072
:1006E000E700090003450400E31635FF83461400C4
:1006F000930A140013870A00130B00029309F0FFFA
:10070000130AF0FF9305000013055005130890002D
:100710009387D6FD93F7F70F130417006366F5363A
:10072000174600001306461A93972700B387C700A1
:1007300083A70700B387C700678007008320C11421
:100740000324811483244114032901148329C11330
:10075000032A8113832A4113032B0113832BC11214
:10076000032C8112832C4112032D0112832DC11100
:100770001301011567800000930A80002322010005
:100780009307100063C8B72483278100938647002E
:1007900083278100930D000083AB07002324D10041
:1007A00013860A009306000013850B0093850D0045
:1007B000EF10901A2328A10093070000130D0500E5
:1007C000638CB72F130C41019309100013860A00A4
:1007D0009306000013850B0093850D00EF10403445
:1007E00013860A0093060000930B0500938D050005
:1007F000EF109016832741002320AC00130D050055
:10080000938C1900130C4C006386B70193890C007C
:100810006FF0DFFBE3FC5BFF63DC4C01130AFAFFC4
:100820009385040013050B00E7000900E3C84CFFA3
:100830008327C100130A9000B389F9009399290016
:1008400093070101B38937016F00C00003AD0900B0
:100850009389C9FF130570056364AA01130500039A
:10086000938504003305A501E70009009307C10043
:10087000E39E37FD6FF09FE41305000393850400AA
:10088000E70009009385040013058007E7000900CD
:1008900083278100930A00012322010093864700E9
:1008A0006FF01FEF832781008346170013070400B2
:1008B00083A90700938747002324F100E35A0AE441
:1008C000138A09009309F0FF6FF09FE48346170035
:1008D000130BD002130704006FF09FE39347FAFF56
:1008E00093D7F74183461700337AFA0013070400C1
:1008F0006FF01FE283461700130B00031307040079
:100900006FF01FE103461700938906FD13070400EB
:10091000930706FD93060600E362F8FA9397290011
:10092000B38937011307170093991900B389C900D8
:1009300003460700938909FD930706FD9306060009
:10094000E37EF8FC6FF09FF7832781009385040016
:1009500003A50700938C4700E700090023249101B9
:100960006FF0DFD59307100063C4B716032781002B
:1009700093074700638E0516832B07002324F1009D
:1009800093DDFB4163D20D02938504001305D00271
:10099000E700090033077041B336E000B307B04108
:1009A000930B0700B38DD740930AA00023220100C8
:1009B0006FF01FDF834617009385150013070400AF
:1009C0006FF01FD52322010093071000930AA000A7
:1009D000E3DCB7DA832781009387770093F787FFFB
:1009E000138787002324E10083AB070083AD470012
:1009F0006FF01FDB930A0001232201006FF05FD824
:100A000083461700130704006FF09FD093850400FE
:100A100013055002E70009006FF05FCA83278100C9
:100A200083AA0700938C470063880A0C635E400723
:100A30009307D0026316FB0E03C50A006308050284
:100A4000130BF0FF63C609009389F9FF638E6901F8
:100A500093850400938A1A00E700090003C50A0081
:100A6000130AFAFFE31005FE635C4001130AFAFF64
:100A70009385040013050002E7000900E3180AFE4D
:100A8000232491016FF09FC3938504001305500246
:100A9000E700090013840A006FF05FC2B386564175
:100AA000330ADA40634A400B03C50A00E30A05FC37
:100AB000130BF0FF6FF01FF9E3F65BD19307100003
:100AC00093090000930C1000E3CA47D56FF05FD67E
:100AD000832781009387770093F787FF1387870029
:100AE0002324E10083AB070083AD47006FF09FE94B
:100AF000032781006FF05FE8635640019307D0023F
:100B0000631CFB00974A0000938A4AD813058002B1
:100B1000130BF0FF6FF01FF3974A0000938A0AD778
:100B2000638C090283C70A006388070293871A004F
:100B300033863A016F0000019387170003C7F7FF60
:100B4000E30E07F493860700E398C7FEB387574187
:100B5000330AFA40E35A40F5130AFAFF938504007A
:100B600013050B00E7000900E3000AF4130AFAFF7B
:100B70009385040013050B00E7000900E31E0AFC3F
:100B80006FF09FF283A705002380A70083A70500CD
:100B90009387170023A0F500678000001315150048
:100BA000973600009386066E1367150093070000C2
:100BB00023A0E60023A2F6006F0000001307B00098
:100BC0006302E50237160000973700009387876BB2
:100BD000130636A79306000023A0C70023A2D70060
:100BE0006F00000003274604130101F793860500F8
:100BF000232611089305D005032586026302B70C4E
:100C00009305204D6300B70C9307F10393F707FC9E
:100C100023A0E700930F000023A2F7010323C602DD
:100C200023A4A700930E000023A6D70103280603E0
:100C300023A867009303000023AA770023AC0701D1
:100C40009308000023AE17010F00F00F17370000C4
:100C5000130747632320F700930500002322B70002
:100C60001737000013070766032507008325470091
:100C70003365B500E30A05FE130500002320A70035
:100C8000930500002322B7000F00F00F03A5070013
:100C900083A5470083D70600130730002324A6024C
:100CA00093F73700130540006384E7001305200025
:100CB0008320C1083305D5001301010967800000B6
:100CC000EFF0DFEDF32700B06312050217470000D5
:100CD0001307C7020327070097460000938686BBC9
:100CE00017460000232AD600B387E74017470000C5
:100CF0002326F7006F0000009308D005930500003D
:100D00001306000073000000730000007300000071
:100D100073000000730000006F0000006780000097
:100D2000130101FF23248100232611001304050071
:100D300003450500630A050013041400EFF05F8DFE
:100D400003450400E31A05FE8320C100032481004B
:100D50001301010167800000630405006F000000BB
:100D600067800000130101FD232481022326110264
:100D70001304C1001307B101930890006F008000B5
:100D8000138707009376F5001398C50113554500A6
:100D90001306700593F7F60F63E4D80013060003FB
:100DA000B387C7002300F7003365A8009307F7FF58
:100DB00093D54500E316E4FC0345C100230E010072
:100DC000630A050013041400EFF09F840345040038
:100DD000E31A05FE8320C1020324810213010103EB
:100DE00067800000130101FC130341022322B102BA
:100DF0002324C1022326D102130605009306030013
:100E0000170500001305058193050000232E11002E
:100E10002328E102232AF102232C0103232E1103AC
:100E200023266100EFF05F848320C10113050000D9
:100E30001301010467800000130101FB1303810308
:100E4000232481022326A100232CC102232ED102B8
:100E50001304050013860500170500001305C5D20D
:100E60009305C10093060300232611022322F104F7
:100E70002320E1042324010523261105232E6100EC
:100E8000EFF08FFE8327C100238007000325C100F8
:100E90008320C1023305854003248102130101052B
:100EA00067800000B3E7C500B367F50093F737002C
:100EB000B306C500638407023386C50093070500A7
:100EC000637ED5029385150003C7F5FF938717004E
:100ED000A38FE7FEE318B6FE67800000E37ED5FE31
:100EE000930705009385450003A7C5FF9387470037
:100EF00023AEE7FEE3E8D7FE6780000067800000CE
:100F0000B367C50093F737003306C5006380070257
:100F100093F5F50F930705006370C50493871700D9
:100F2000A38FB7FEE31CF6FE6780000093F5F50F74
:100F30001397850033E7E500931707013367F70040
:100F4000E374C5FE930705009387470023AEE7FED1
:100F5000E3ECC7FE6780000067800000130101F822
:100F6000232A910623282107130902009304020073
:100F7000B304994013860400232631072324410734
:100F800093090500138A0500130502009765000008
:100F900093858554232E110623225107232C810685
:100FA000930A0200EFF01FF01306020033062641F9
:100FB0009305000033859A00EFF09FF493050A0033
:100FC00013850900EFF05FD99305000013050000B9
:100FD000EF20901B97470000938747D283A6070016
:100FE000930405006396060013850400EFF0DFD03C
:100FF00097470000938747D01304F10303A6070027
:10100000137404FC974500009385C58A13050400FA
:10101000EFF09FE2631805006FF01FFD130414004A
:10102000EFF00FDF03450400E31A05FE6FF0DFFB6E
:1010300083470500638E0700930705009387170019
:1010400003C70700E31C07FE3385A7406780000045
:1010500013050000678000006384050283470500D4
:10106000638A0702B306B500930705006F00C0004E
:1010700003C70700630A070093871700E39AD7FEA8
:101080001385050067800000B385A7401385050020
:1010900067800000930500006FF09FFE13051500A8
:1010A0008347F5FF9385150003C7F5FF63880700A5
:1010B000E386E7FE3385E740678000009307000082
:1010C0006FF05FFF930705009385150003C7F5FFD9
:1010D00093871700A38FE7FEE31807FE67800000E1
:1010E00083470500130700026398E7001305150006
:1010F00083470500E38CE7FE138757FD1377D70F6F
:1011000063020704834605009307050013060000E9
:10111000638806041305000093871700938506FD76
:101120001317250083C607003305A7001315150004
:101130003385A500E39206FE630406003305A04054
:101140006780000083461500938737FD13B61700AC
:1011500093071500E39006FC130500006FF0DFFD18
:101160001305000067800000B717000083A7C700C1
:10117000370380009306300603C7070017360000C8
:1011800013060674930F7001130333011308B0079D
:101190009302D007930EB0039308F002630E070E7C
:1011A00013050700130E75FF137EFE0F335FC30197
:1011B00093850700137F1F0063E6CF1763160F1494
:1011C000638616036314D502930606009386160001
:1011D00003C5060093851500630C0514630A1515F5
:1011E00003CE050063040E00E302C5FF630A070B8C
:1011F0006300D7219387170003C70700E31807FE92
:1012000083460600E39C06F863080708370680005B
:101210009305700113063601130777FF1377F70F55
:10122000B356E60093F6160063E4E5006398061AE9
:1012300083C6070063820606138776FF1376F70FCF
:101240009306700163E2C612B706800093863601EA
:10125000B3D6C60093F616006388061037068000E2
:1012600093057001130636011377F70FB356E600A6
:1012700093F6160063E4E5006392061203C70700C5
:10128000630C07009306B007630ED7169387170009
:1012900003C70700E31A07FE1305F0FF678000008D
:1012A00003CE170093851700834606001305100030
:1012B000130700009387050063100E026FF09FF480
:1012C00063145E021305F5FFE30E07F263040502E3
:1012D00093850700130E070003C7150093871500B9
:1012E000E3100EFF13051500E31407FEE39806EA6A
:1012F0006FF09FF1E318D7F103C72500938725000E
:10130000E39E06E86FF05FF09385150003C50500C6
:10131000130E75FF137EFE0F335FC301137F1F0093
:10132000E3FECFE9E38416EDE31E05E86FF01FEC62
:1013300083C60500938676FF93F6F60FE3E8DFEAAF
:10134000B356D30093F61600639806006FF01FEAB9
:101350006380150713860600834516009306160062
:10136000E39805FE6FF09FEA3706800013087001CE
:10137000130636019387170083C60700138776FF8D
:101380001375F70FB355A60093F51500E38606F025
:10139000E362A8FEE38005FE6FF05FEC9387170021
:1013A00083C60700E38A06EE138776FF6FF0DFEB54
:1013B00083C6160013062600E38A06E4630A0701C3
:1013C0009387170003C70700E30807ECE31A07FF3A
:1013D00003C71700938717006FF05FDC9387170030
:1013E00003C70700E31A07E21305F0FF6780000058
:1013F0008346060003C7170093871700E39006DAB9
:101400006FF09FE003C7170093871700E30607E814
:1014100037038000130500009308B0071308B003DA
:10142000130ED007930E70011303330163061705E3
:10143000630A07019387170003C70700E31807FE35
:101440006780000003C71700938717006308070A27
:10145000930677FF93F6F60F3356D30013761600F4
:1014600063EEDE06631C06041305150003C70700C0
:10147000E30807FCE31E17FB83C5170093861700DC
:10148000638C0506130610006F00C0016394C5034A
:101490001306F6FFE30607FA6308060493860700BF
:1014A0009305070003C7160093871600E39015FF06
:1014B00013061600E31407FE6780000093871700E9
:1014C00003C70700E30E07F6930677FF93F6F60FC0
:1014D0003356D30013761600E3F6DEF81305150035
:1014E000E316C7F967800000E31407F79387260027
:1014F00003C726006FF09FF567800000678000003B
:10150000130101FC232C8102232A910223282103A9
:10151000232E1102232631032324410323225103C6
:1015200023206103232E7101232C8101232A9101A1
:101530002328A1012326B10193840500130405008B
:101540001309000063CE051663DA06003306C040B7
:10155000B337C000B306D040B386F640138A060006
:1015600093090600930A0400938B040063960624F3
:1015700063F4C416B70701006376F62C9307F00FE7
:101580001307060063F6C70013578600130A80008E
:101590009737000083A7C7D3B387E70083C7070047
:1015A00013050002B3874701330AF540630C0A00B4
:1015B000B3944401B35BF400B3194601B3EB9B0051
:1015C000B31A440113DC090193050C0013850B00C9
:1015D000EF20002C130B050093050C0013850B0066
:1015E000939B0901EF20402693DB0B019305050037
:1015F00013850B00EF208022131B0B0193D70A01E8
:10160000B367FB0063F8A700B387370163E43701D2
:1016100063E4A7503384A74093050C00130504002E
:10162000EF2000279304050093050C001305040028
:10163000EF2080219305050013850B00EF20001E8D
:1016400093970A019394040193D70701B3E7F40039
:1016500063FAA700B387370163E6370163F4A70095
:10166000B38737013385A740335545019305000003
:10167000630A09003305A040B337A000B304B040AB
:10168000B385F4408320C1030324810383244103F1
:10169000032901038329C102032A8102832A41020B
:1016A000032B0102832BC101032C8101832C4101F7
:1016B000032D0101832DC100130101046780000087
:1016C0003304A040B3378000B304B040B384F44087
:1016D0001309F0FF6FF05FE7631A0600930500003F
:1016E00013051000EF20401693090500B70701000D
:1016F00063EEF912B707000163E0F93E13D78901E1
:10170000130A80019737000083A787BCB387E700DF
:1017100083C7070013050002B3874701330AF5406A
:10172000631C0A12139C0901B384344193DB090141
:10173000135C0C0193850B0013850400EF2040150A
:10174000130B050093850B0013850400EF20C00FD9
:1017500093050C00EF20800C131B0B0193D70A019B
:10176000B367FB0063FAA700B387370163E637016D
:1017700063F4A700B38737013384A74093850B0038
:1017800013050400EF20C0109304050093850B009F
:1017900013050400EF20400B93050C00939A0A01F7
:1017A000EF20C0079394040193DA0A01B3E75401D0
:1017B000E3FAA7EA6FF01FEA1305040063EAD40412
:1017C000B707010063EAF604B707000163ECF630DF
:1017D00093D58601130780019737000083A747AF91
:1017E000B387B70083CA070093050002B38AEA00F3
:1017F000338A554163140A1263E49600636AC40095
:101800003305C440B386D4403334A400B384864047
:10181000938504006FF0DFE59307F00F63F0D72E98
:1018200093D58600130780006FF01FFB9307F00F1E
:1018300013870900E3F837ED13D78900130A8000F6
:101840006FF05FECB70700016364F62A1357860157
:10185000130A80016FF0DFD3B3994901B3DCF400C0
:1018600093DB0901B357F40093850B00B394440153
:1018700013850C0033EB9700EF208001930A0500DD
:1018800093850B00139C090113850C00EF10D07B8E
:10189000135C0C019305050013050C00EF10107884
:1018A000939A0A0193570B01B3E7FA00B31A440164
:1018B00063FAA700B387370163E6370163F4A70033
:1018C000B3873701B384A74093850B0013850400C9
:1018D000EF10107C1304050093850B0013850400A2
:1018E000EF109076131B0B01930505009314040170
:1018F00013050C00135B0B01EF105072B3E464018D
:1019000063FAA400B384340163E6340163F4A400F1
:10191000B3843401B384A4406FF0DFE1B3575601C0
:10192000B3964601B3EBD70033DB540113DC0B0154
:10193000B357540193050C0013050B00B3944401F5
:10194000B3E49700B3194601EF109074130D05002E
:1019500093050C0013050B00939C0B01EF10D06E48
:1019600093DC0C0193050500130B050013850C0097
:10197000EF10D06A131D0D0113D704013367ED007A
:1019800033144401637EA700330777019307FBFFFD
:1019900063607719637EA716130BEBFF330777019C
:1019A000330DA74093050C0013050D00EF10506E8A
:1019B00093050C00930D050013050D00EF10D06882
:1019C0009394040193050500130C0500939D0D01EC
:1019D00013850C0093D40401EF105064B3E49D0010
:1019E00063FEA400B38474019307FCFF63EE7411DB
:1019F00063FCA410130CECFFB384740137030100E3
:101A0000131B0B01336B8B011307F3FFB377EB0051
:101A100033F7E900B384A440135B0B0193D80901A9
:101A20001385070093050700EF10505F13080500AA
:101A30009385080013850700EF10505E930705009B
:101A40009305070013050B00EF10505D1307050009
:101A50009385080013050B00EF10505CB387E70077
:101A600093560801B387D70063F4E7003305650098
:101A7000370701001307F7FF93D50701B3F7E70016
:101A8000939707013378E800B385A500B387070172
:101A900063E8B4026384B402B307F440B385B4408E
:101AA0003334F400B384854033955401B3D74701F0
:101AB0003365F500B3D544016FF09FBBE37EF4FCC2
:101AC000B3893741B3B73701B3877701B385F540A1
:101AD000938709006FF05FFC13D70901130A000117
:101AE0006FF05FC293D50601130700016FF0DFCEE0
:101AF00013570601130A00016FF09FA99385060092
:101B0000130700006FF05FCD138C07006FF01FEF1D
:101B1000138B07006FF0DFE8B38737016FF09FAFDB
:101B2000130101FD23248102232C410123261102EC
:101B30002322910223202103232E3101232A510144
:101B4000232861012326710123248101232291018D
:101B5000130A050013840500639E0622938906007C
:101B6000930406001309050063FEC510B7070100C2
:101B7000938A0500636EF62CB7070001636AF65678
:101B800013578601930980019727000083A74774A4
:101B9000B387E70083C70700B389370193070002C3
:101BA000B3873741638C07003314F400B3593A010B
:101BB000B314F600B3EA89003319FA0013DB040109
:101BC00093050B0013850A00EF10904C130A0500D3
:101BD00093050B0013850A00939A0401EF10D04679
:101BE00093DA0A01930505001304050013850A0022
:101BF000EF10D042131A0A0193570901B367FA0094
:101C000063FCA700B38797001307F4FF63E4970012
:101C100063E8A75213040700B389A74093050B009C
:101C200013850900EF10D046130A050093050B0039
:101C300013850900EF1050411319090193050500A0
:101C400093090500131A0A0113850A0013590901A3
:101C5000EF10D03C33692A01637EA9003389240147
:101C60009387F9FF636699009389E9FF6364A9008C
:101C7000938907001315040133653501130C000027
:101C80006F00C016631A06009305000013051000CC
:101C9000EF10903B93040500B707010063EEF418C2
:101CA000B707000163ECF44413D784019309800162
:101CB0009727000083A7C761B387E70083C70700A2
:101CC000B389370193070002B3873741639E071832
:101CD000939B04013304944013DB040193DB0B0159
:101CE000130C100093050B0013050400EF10503A7D
:101CF000130A050093050B0013050400EF10D03400
:101D000093850B0013040500EF105031131A0A01DC
:101D100093570901B367FA0063FCA700B3879700E4
:101D20001307F4FF63E4970063E2A742130407007C
:101D3000B389A74093050B0013850900EF105035B8
:101D4000130A050093050B0013850900EF10D02F2F
:101D50001319090193850B00131A0A01135909017C
:101D60009309050033692A01EF10502B637EA90007
:101D7000338924019387F9FF636699009389E9FF0A
:101D80006364A900938907001315040133653501C5
:101D90006F00C00563E8D504B707010063E4F608E7
:101DA000B707000163E0F63493D7860193058001FD
:101DB000172700000327C7513307F70083470700A1
:101DC000130B0002B387B700330BFB4063100B18F3
:101DD00063EC86323336CA0013451600130C00003C
:101DE0006F00C000130C00001305000093050C00E9
:101DF0008320C102032481028324410203290102BA
:101E00008329C101032A8101832A4101032B010196
:101E1000832BC100032C8100832C4100130101039B
:101E2000678000009307F00F63F6D72E93D78600E4
:101E3000930580006FF0DFF79307F00F138704001E
:101E4000E3F897E613D78400930980006FF05FE60C
:101E50009307F00F13070600E3F8C7D21357860065
:101E6000930980006FF05FD2B394F400335C3401C7
:101E700013DB040193050B0013050C003314F4006D
:101E80003319FA00B3593A01EF109020B3EA8900F0
:101E900093050B0093090500939B040113050C00A7
:101EA000EF10901A93DB0B0193050500130A050050
:101EB00013850B00EF1090169399090193D70A012F
:101EC000B3E7F90063FEA700B38797001307FAFF93
:101ED00063E4972663F2A726130AEAFFB387970005
:101EE0003384A74093050B0013050400EF10501A2C
:101EF0009309050093050B0013050400EF10D0149F
:101F0000939A0A0193050500130C05001394090127
:101F100013850B0093DA0A01EF105010336454015B
:101F2000637EA400330494009307FCFF636E941E49
:101F3000637CA41E130CECFF33049400131A0A01F3
:101F40003304A440336C8A016FF0DFD9B35BF60031
:101F5000B3966601B3EBDB00B354F40093D90B01E5
:101F6000B357FA0093850900331464011385040004
:101F700033E48700B31A6601EF10901113090500CE
:101F800093850900139C0B0113850400EF10D00BFF
:101F9000135C0C0193050500930C050013050C0060
:101FA000EF10D0071319090193570401B367F90023
:101FB00063FEA700B38777011387FCFF63EA7717F7
:101FC00063F8A716938CECFFB3877701B384A7401F
:101FD0009385090013850400EF10900B1309050089
:101FE0009385090013850400EF10100613140401F3
:101FF00093050500930405001319090113050C004E
:1020000013540401EF10900133648900637EA4002F
:10201000330474019387F4FF636474116372A41032
:102020009384E4FF33047401370E0100939C0C0188
:10203000B3EC9C001307FEFF33F8EC0033F7EA0023
:102040003304A44093D80C0193DA0A011305080065
:1020500093050700EF10807C1303050093850A00A9
:1020600013050800EF10807B130805009305070097
:1020700013850800EF10807A1307050093850A0086
:1020800013850800EF108079935703013308E800A7
:10209000B387070163F4E7003305C50113D70701D0
:1020A0003305A700636AA4026308A40013850C002B
:1020B000130C00006FF09FD3370701001307F7FFE1
:1020C000B3F7E700939707013373E30033166A0110
:1020D000B3876700E37CF6FC1385FCFF130C00005C
:1020E0006FF0DFD093D70601930500016FF05FCC4E
:1020F00013570601930900016FF01FA913D70401BC
:10210000930900016FF0DFBA130C000013051000F3
:102110006FF0DFCD93870600930500006FF05FC975
:10212000938407006FF05FF0138C07006FF01FE1DE
:10213000930C07006FF09FE9130A07006FF05FDA56
:102140001304E4FFB38797006FF01FAD1304E4FF9F
:10215000B38797006FF0DFBD130101FD23248102D7
:10216000232291022326110223202103232E310151
:10217000232C4101232A51012328610123267101C7
:1021800023248101232291012320A10193840500AE
:10219000130405006396062213890600130B06003C
:1021A0009309050063FEC512B7070100938A050075
:1021B000637AF6289307F00F1307060063F6C7004B
:1021C00013578600130980009727000083A7471044
:1021D000B387E70083C7070013050002B387270111
:1021E0003309F540630C0900B3942401B35AF40099
:1021F000331B2601B3EA9A00B3192401935B0B0148
:1022000093850B0013850A00EF108068130A050000
:1022100093850B0013850A00931A0B01EF10C0621F
:1022200093DA0A019305050013850A00EF10005F99
:10223000131A0A0193D70901B367FA0063F8A700DC
:10224000B387670163E4670163E8A74C3384A74061
:1022500093850B0013050400EF10806393040500C1
:1022600093850B0013050400EF10005E9305050035
:1022700013850A00EF10805A939709019394040183
:1022800093D70701B3E7F40063FAA700B3876701A8
:1022900063E6670163F4A700B38767013385A7404E
:1022A00033552501930500008320C10203248102D8
:1022B00083244102032901028329C101032A8101E8
:1022C000832A4101032B0101832BC100032C8100D0
:1022D000832C4100032D01001301010367800000DE
:1022E000631A06009305000013051000EF10C05597
:1022F000130B0500B7070100636AFB12B707000163
:10230000636CFB3C13578B01130980019727000076
:1023100083A707FCB387E70083C707001305000204
:10232000B38727013309F54063180912931B0B018A
:10233000B3846441935A0B0193DB0B0193850A002C
:1023400013850400EF10C054130A050093850A009A
:1023500013850400EF10404F93850B00EF10004CE5
:10236000131A0A0193D70901B367FA0063FAA700A9
:10237000B387670163E6670163F4A700B38767016A
:102380003384A74093850A0013050400EF104050E2
:102390009304050093850A0013050400EF10C04A5A
:1023A00093850B0093990901EF1040479394040122
:1023B00093D90901B3E73401E3F2A7EE6FF01FED03
:1023C000E3E4D5EEB707010063E8F604B7070001C0
:1023D00063EAF63013D886011307800197270000BF
:1023E00083A707EFB387070183CA0700130A000218
:1023F000B38AEA00330A5A4163120A1263E4960070
:10240000E364C4EA3305C440B386D440B335A400C2
:10241000B385B6406FF05FE99307F00F63F0D72EF6
:1024200013D88600130780006FF05FFB9307F00F4F
:1024300013070B00E3FC67ED13578B0013098000B3
:102440006FF0DFECB70700016364F62A13578601CB
:10245000130980016FF05FD7331B2B0133DCF400CD
:10246000935A0B01B357F40093850A00B3942401E7
:1024700013050C0033EA9700EF1080419309050023
:1024800093850A00931B0B0113050C00EF10C03B52
:1024900093DB0B019305050013850B00EF1000384B
:1024A0009399090193570A01B3E7F900B31924017D
:1024B00063FAA700B387670163E6670163F4A700C7
:1024C000B3876701B384A74093850A00138504008E
:1024D000EF10003C1304050093850A0013850400E7
:1024E000EF108036131A0A019305050093140401B6
:1024F00013850B00135A0A01EF104032B3E4440174
:1025000063FAA400B384640163E6640163F4A40085
:10251000B3846401B384A4406FF05FE2B357560103
:10252000B396460133ECD700B3D95401935C0C0148
:10253000B357540193850C0013850900B3944401EB
:10254000B3E4970033194601EF108034930B050074
:1025500093850C0013850900131D0C01EF10C02E8C
:10256000135D0D01930505009309050013050D008A
:10257000EF10C02A939B0B0113D7040133E7EB0044
:1025800033144401637EA700330787019387F9FF63
:1025900063608719637EA7169389E9FF3307870174
:1025A000330BA74093850C0013050B00EF10402E52
:1025B000930B050093850C0013050B00EF10C0284A
:1025C0009394040193050500130B0500939B0B01E5
:1025D00013050D0093D40401EF104024B3E49B00D5
:1025E00063FEA400B38484019307FBFF63EE8411B0
:1025F00063FCA410130BEBFFB3848401370E0100BE
:1026000093990901B3E969011307FEFFB3F7E900E4
:102610003377E900B384A44093D9090193580901A1
:102620001385070093050700EF10401F13080500EE
:102630009385080013850700EF10401E1303050063
:102640009305070013850900EF10401D13070500CF
:102650009385080013850900EF10401C935708016B
:102660003303E300B387670063F4E7003305C50174
:10267000370701001307F7FF93D50701B3F7E7000A
:10268000939707013378E800B385A500B387070166
:1026900063E8B4026384B402B307F4403334F40053
:1026A000B385B440B385854033955501B3D7470111
:1026B0003365F500B3D545016FF01FBFE37EF4FC31
:1026C00033892741B3B72701B3878701B385F54025
:1026D000930709006FF05FFC13570B01130900010A
:1026E0006FF0DFC213D80601130700016FF01FCF90
:1026F00013570601130900016FF01FAD1388060080
:10270000130700006FF09FCD138B07006FF01FEFD2
:10271000938907006FF0DFE8B38767016FF01FB39D
:10272000130101FB13D745012324810423229104C3
:10273000232A51031394C5002326110423202105C5
:10274000232E3103232C4103232861032326710305
:1027500023248103232291032320A103232EB101EB
:102760001377F77F930405001354C40093DAF5013F
:10277000630407189307F07F630EF71C135BD50102
:102780001314340033648B00370B8000336B640107
:10279000931B3500130917C013040000130C00002D
:1027A00013D746019399C6001377F77F13080600E5
:1027B00093D9C90013DAF6016308070E9307F07F77
:1027C0006308F7049354D60193993900B3E93401AF
:1027D000130717C0B707800013183600B3E4F900D9
:1027E0003309E940130600009307F000B3C94A011A
:1027F00063E8872697270000938787221314240015
:102800003304F400032704003307F70067000700D0
:10281000B3E4C90013091980639A041813642400EF
:1028200013080000130620006FF01FFC1306F07F52
:1028300093070000130700009397C7008320C1048B
:10284000032481041316460193D7C7009399F90115
:10285000B3E7C700B3E73701832441040329010428
:102860008329C103032A8103832A4103032B010324
:10287000832BC102032C8102832C4102032D010210
:10288000832DC1011305070093850700130101057E
:1028900067800000930900001306F07FB707080067
:1028A000130700006FF05FF9B3E4C9006388040EFA
:1028B0006384094E138509002324C100EF108003AF
:1028C0000326810093060500930455FF9307D0016A
:1028D000138786FFB3879740B399E900B357F60093
:1028E000B3E437013318E600338726011309373F75
:1028F000130600006FF05FEF336BA40063060B0854
:102900002326D1002324C1006302044613050400DA
:10291000EF00507E032681008326C10013090500C5
:10292000130755FF130BD001930B89FF330BEB40BB
:102930003314740133DB6401336B8B00B39B74017C
:102940001307D0C03309274113040000130C000003
:102950006FF01FE5336BA400631C0B0013048000B1
:10296000930B00001309F07F130C20006FF05FE35E
:10297000130B0400930B05001304C0001309F07F30
:10298000130C30006FF0DFE113044000930B0000E4
:1029900013090000130C10006FF09FE01364140083
:1029A00013080000130610006FF01FE413643400D6
:1029B00093840900130630006FF01FE36306044A96
:1029C00093071000B3878740130780036356F750BF
:1029D0001306000093070000130700006FF0DFE507
:1029E00093060A0093072000630CF65A9307300001
:1029F000E302F6EA9307100093890600E30AF6FC67
:102A00001304F93FE35C80FA937778006390074200
:102A1000135838009397740063DA0700B70700FF74
:102A20009387F7FFB3F4F400130409409307E07FA2
:102A3000E3CE87DE1397D4019397940033670701A1
:102A400093D7C7001376F47F6FF01FDF93860A00D9
:102A500093040B0013880B0013060C006FF09FF813
:102A600063EC643963089B381309F9FF138A0B0080
:102A7000930D000093978400135D8801336DFD0072
:102A8000935A0D0193850A00931C0D0113050B0049
:102A9000131C880093DC0C01EF00105B930505000C
:102AA0009304050013850C00EF005057930B0500AD
:102AB00093850A0013050B00EF00905D13150501C7
:102AC00013570A013365A700637E75013305A5011D
:102AD0009387F4FF636EA53F637C753F9384E4FFA7
:102AE0003305A5013304754193850A0013050400DD
:102AF000EF00905593050500130B050013850C009E
:102B0000EF00D051930B050093850A0013050400D4
:102B1000EF001058131A0A0113150501135A0A0180
:102B20003365AA00637E75013305A5019307FBFF9A
:102B3000636CA539637A7539130BEBFF3305A50177
:102B4000370E010093940401B3E46401130BFEFFFC
:102B500033F86401337B6C01B30B754113D7040167
:102B600093570C011305080093050B00EF00104B61
:102B7000930805009385070013050800EF00104A2D
:102B80001308050093050B0013050700EF0010491B
:102B9000130305009385070013050700EF00104895
:102BA00013D708013308680033070701637467000F
:102BB0003305C501370601001306F6FF93560701DA
:102BC000337AC700131A0A0133F7C8003385A60009
:102BD000330AEA0063ECAB1E6388AB1E338A4D41B7
:102BE0003385AB40B3BB4D012324F100B30B7541DA
:102BF0001304F93F630E7D2593850A0013850B00AE
:102C0000EF00904493050500930D050013850C001B
:102C1000EF00D0402326A10093850A0013850B0006
:102C2000EF0010470327C1001315050193560A0151
:102C300033E5A60083278100637EE5003305A50107
:102C40009386FDFF636CA531637AE530938DEDFFCC
:102C50003305A501B30BE54093850A0013850B00EE
:102C60002326F100EF00503E930505002324A10028
:102C700013850C00EF00903A930C050093850A0031
:102C800013850B00EF00D040131A0A01131505013C
:102C9000135A0A01336AAA00032881008327C1005E
:102CA000637E9A01330AAA011307F8FF636CAA2B0B
:102CB000637A9A2B1308E8FF330AAA0113970D01D0
:102CC000336807011317080113570701330A9A41A4
:102CD000135E08011305070093050B00EF00103485
:102CE000930805009385070013050700EF001033D4
:102CF0001307050093050B0013050E00EF001032BB
:102D0000130305009385070013050E00EF00103133
:102D100093D7080133076700B387E70063F66700BE
:102D2000370701003305E500B70601009386F6FF7B
:102D300013D70701B3F7D70093970701B3F8D8006B
:102D40003305A700B38717016374AA0C330A4D013A
:102D50001307F8FF6360AA25636AAA20630CAA24FC
:102D600013080700136818006FF0DFC9EF009038F0
:102D7000130755019305C0011309050203268100BD
:102D80008326C100E3D0E5BA130485FF339B84009A
:102D9000930B00006FF0DFBA130506002324C10077
:102DA000EF005035930455019307C00193060502C7
:102DB00003268100E3DC97B0930785FFB314F60088
:102DC000130800006FF05FB2E3FA4DE1B38D8D019F
:102DD00033B78D013307A701B38BEB001387F4FFE3
:102DE000637E7D0363E0AB16630C751593040700E7
:102DF0006FF0DFDEE3EA0BC7131AFB0193D71B006A
:102E0000135B1B00336AFA00939DFB016FF09FC6B2
:102E1000E31AAAF4E38807BE6FF05FF3E3187DFDC1
:102E2000E3F28DFD930407006FF05FDB9377F8000A
:102E300013074000E38EE7BC9337C8FF1308480030
:102E400093C7170013583800B384F4006FF09FBC89
:102E50001308000093071000E34880FE1308F0FFFA
:102E6000E31004B6130910C0930710001307E941DB
:102E7000B396E4003356F8003318E8003338000105
:102E800033E7C6003367070193767700B3D4F400C5
:102E9000638006029377F70093064000638AD700A9
:102EA0009307470033B7E700B384E40013870700B4
:102EB0009397840063D80706130610009307000059
:102EC000130700006FF05F97138B07006FF05FC769
:102ED000938407006FF01FC11307F001E358F7F860
:102EE000130610FE330686401307000233D6C400D3
:102EF0006388E7009307E943B397F4003368F80069
:102F0000333700013367C7009374770093070000DD
:102F1000638004029377F700930640009304000057
:102F2000E390D7F89397940093D7C7009394D40174
:102F30001357370033679700130600006FF0DF8FD9
:102F4000E3F64DEBB38D8D0133B78D013307A70148
:102F50009384E4FFB38BEB006FF05FC8938D0600A2
:102F60006FF05FCF130807006FF05FD513171C00D9
:102F7000333C8701330DAC01330AAA011308E8FF83
:102F8000130C0700E310AADEE38E87A7136818006E
:102F90006FF05FA713080700E308AAFE6FF09FDC3D
:102FA000938906001306F07F9307000013070000C3
:102FB0006FF09F88E36CFCFA13080700E39887FD25
:102FC0006FF05FA4130101FC2328210313D94501ED
:102FD0002326310323244103232251039399C5005F
:102FE000232E1102232C8102232A91022320610324
:102FF000232E71011379F97F130A050093D9C900B3
:1030000093DAF501630E09149307F07F630CF9203E
:103010001354D50193993900B36934013704800002
:1030200033E4890093143500130919C09309000093
:10303000930B000093D74601139AC60093F7F77FCE
:1030400093050600135ACA0013DBF60163840718C0
:103050001307F07F638CE7041357D601131A3A0065
:10306000336A4701938717C0370780003367EA0048
:10307000931536003309F9001305000033C86A01BF
:103080009307F000130608009308190063E0372344
:10309000972600009386C69C93992900B389D9008E
:1030A00083A70900B387D700678007003367CA008A
:1030B0001309F97F6314071C93E9290093050000A5
:1030C000130520006FF09FFB130800009307F07FAB
:1030D00037040800930400001314C40093974701B9
:1030E0001354C4001318F8013364F400336404016A
:1030F000930504008320C103032481031385040086
:1031000003290103832441038329C102032A810285
:10311000832A4102032B0102832BC1011301010405
:103120006780000013060B0013040700938405005A
:10313000930B0500930720006380FB169307300074
:10314000E384FBF893071000130806006392FB5812
:103150009307000013040000930400006FF0DFF7F2
:1031600033E4A900630204102326D1002324C10004
:103170006386094413850900EF00C07703268100A8
:103180008326C10093070500130755FF1304D001E0
:10319000938487FF3304E440B399990033548A0041
:1031A00033643401B3149A001309D0C03309F940D1
:1031B00093D74601139AC60093F7F77F930900004F
:1031C000930B000093050600135ACA0013DBF601A7
:1031D000E39007E83367CA006304070663080A3A06
:1031E00013050A002324C100EF00C07003268100EC
:1031F00093070500930655FF1307D001938587FFBA
:103200003307D740331ABA003357E6003367470114
:10321000B315B6003309F9401309D9C013050000EE
:103220006FF0DFE533E4A900631404029309800022
:10323000930400001309F07F930B20006FF09FDFD1
:1032400093E9190093050000130510006FF01FE3C8
:1032500013840900930405009309C0001309F07F4B
:10326000930B30006FF01FDD9309400093040000C2
:1032700013090000930B10006FF0DFDB93E93900B6
:1032800013070A00130530006FF05FDF930720007B
:1032900013860A00E394FBEA130806009307F07F05
:1032A00013040000930400006FF01FE3B70901004E
:1032B000138EF9FF33FFC40133FEC50193DF05010F
:1032C00013D3040113050F0093050E00EF00005502
:1032D000930E050093850F0013050F00EF000054B7
:1032E0009307050093050E0013050300EF0000533C
:1032F0009303050093850F0013050300EF000052B0
:1033000093D60E01B3877700B386F60093020500CB
:1033100063F47600B3023501B7090100138AF9FF9F
:10332000B3F4460193970401B3F44E01337A470195
:1033300093DE0601B38497001357070113050F00AE
:1033400093050A00EF00804D9303050093050700E5
:1033500013050F00EF00804C130F050093050A00C2
:1033600013050300EF00804B930A05009305070047
:1033700013050300EF00804A93D70301330F5F0169
:10338000B387E70163F4570133053501B70A01003C
:103390009386FAFF33F3D70013130301B3F3D3007B
:1033A000B309730093D707013373D400338FA70099
:1033B000B38E3E01135404011305030093050E0060
:1033C000EF00C0459307050093850F001305030028
:1033D000EF00C0449303050093050E00130504009D
:1033E000EF00C043130E050093850F001305040082
:1033F000EF00C04213D60701B383C3013306760042
:103400006374C60133055501B70A01009383FAFFBF
:10341000B37676009396060113560601B3F777004C
:10342000B30FA600B383F6001305030093050A004B
:10343000EF00C03E130E05009305070013050300BF
:10344000EF00C03D9307050093050A001305040033
:10345000EF00C03C130305009305070013050400AB
:10346000EF00C03B93550E01B3876700B385F500AD
:1034700063F4650033055501370701001307F7FFB3
:10348000B3F7E500337EEE009397070133875E00C4
:10349000B387C70133333701B387E70133077700B9
:1034A000338E6700B33677003306FE01B30ED600C5
:1034B000B3B7E70133336E0033E4670093D50501FA
:1034C0003336F601B3B6DE003304B400B366D6007B
:1034D000931797003304D4003304A400B3E4970097
:1034E0001314940013D57E01B33490001357770161
:1034F00093979E00B3E4E4003364A400B3E4F400C3
:103500009317740063D0070293D7140093F4140048
:103510001317F401B3E49700B3E4E4001354140068
:10352000138908009307F93F6350F00C13F77400F8
:103530006300070213F7F40093064000630AD70004
:1035400013874400B33497003304940093040700B6
:1035500013177400635A0700B70700FF9387F7FF3C
:103560003374F400930709401307E07F634AF714AC
:1035700013D734009314D40113149400B3E4E4007B
:103580001354C40093F7F77F6FF01FB513050600BF
:103590002324C100EF000036930655011307C00134
:1035A0009307050203268100E358D7C4130585FF5E
:1035B0003317A600930500006FF0DFC5EF008033DE
:1035C000130755019305C0019307050203268100E7
:1035D0008326C100E3DCE5BA130585FF3314AA0096
:1035E000930400006FF05FBC130710003307F7402F
:1035F000639007061309E941B3972401B3D4E400AB
:1036000033192401B337F000B3649900B3E4F40034
:1036100093F774003357E4006380070293F7F400D4
:1036200093064000638AD70093874400B3B49700A1
:1036300033079700938407009317870063D4070626
:103640009307100013040000930400006FF0DFA83C
:1036500093068003E3CEE6AE9306F001E3DCE6F8E2
:10366000930610FEB387F64013060002B356F4002B
:103670006308C7001309E943B3172401B3E4F40056
:10368000B3349000B3E4D40013F7740013040000C3
:103690006300070293F7F40093064000130700004D
:1036A000E394D7F8131497001354C4001317D701E9
:1036B00093D43400B3E4E400930700006FF0DFA17B
:1036C0009307F07F13040000930400006FF0DFA065
:1036D000138908006FF01FE593D74501B706100066
:1036E0001387F6FF93F7F77F1306E03F3377B700B2
:1036F00093D5F501635EF6001306D041635EF600D4
:10370000370500801345F5FF3385A500678000006D
:103710001305000067800000130630433306F640AF
:103720001308F0013367D7006350C8029306304195
:10373000B387F640B357F7003305F040E39C05FC30
:1037400013850700678000009387D7BEB317F70083
:103750003355C500B3E7A7006FF01FFE130101FF4B
:10376000232611002324810023229100630A0504EB
:103770009357F541B3C4A700B384F4401304050084
:1037800013850400EF0000179306E041B386A640BE
:103790009307A0001354F40193F6F67F63C4A706C1
:1037A0001307B0003307A740B3D7E4001305550152
:1037B0009397C700B394A40093D7C7006F0040014C
:1037C0001304000093060000930700009304000018
:1037D0009397C7009396460193D7C7001314F4013B
:1037E000B3E7D700B3E787008320C100032481003B
:1037F0001385040093850700832441001301010110
:1038000067800000130555FFB397A4009397C70086
:1038100093D7C700930400006FF09FFB13060500C9
:103820001305000093F61500638406003305C500F8
:1038300093D5150013161600E39605FE6780000069
:103840006340050663C6050613860500930505005B
:103850001305F0FF630C060293061000637AB600AE
:103860006358C0001316160093961600E36AB6FE5E
:103870001305000063E6C500B385C5403365D50078
:1038800093D6160013561600E39606FE67800000D6
:1038900093820000EFF05FFB138505006780020054
:1038A0003305A04063D80500B305B0406FF0DFF9E1
:1038B000B305B04093820000EFF01FF93305A0403C
:1038C000678002009382000063CA0500634C050014
:1038D000EFF09FF71385050067800200B305B04045
:1038E000E35805FE3305A040EFF01FF63305B04066
:1038F00067800200B70701006374F5049307F00FB7
:103900001307000263EEA7009717000083A7479CE8
:10391000B387A70003C507003305A74067800000F1
:10392000135585009717000083A7879AB387A700D0
:1039300003C50700130780013305A7406780000017
:10394000B70700016362F502135585019717000060
:1039500083A70798B387A70003C507001307800054
:103960003305A74067800000135505019717000035
:1039700083A70796B387A70003C5070013070001B5
:103980003305A74067800000130101F6232E1108BC
:10399000232C8108232A91081304010A23282109D2
:1039A00023263109232441092322510923206109B7
:1039B000232E7107232C8107232A91072328A1078F
:1039C0002326B107130101FC171700001307879185
:1039D0001306F100130101FC97170000938707E518
:1039E000832F8700032FC700832E0701032E470173
:1039F0000323870183260700832247008358C701DA
:103A00000348E7011307F100137707FF83A50700B9
:103A100093032000137606FF23247700930380028C
:103A2000232677002320C7002328D7009713000000
:103A300023A0C32C2322070017160000232CE62AFC
:103A400003A54700232A570003A6470183A6870141
:103A5000232CF701232EE7012320D7032322C703BA
:103A600023246702231617032307070383A887006D
:103A700003D7C70103A8C7002320B4F883A5070113
:103A800083C7E7012322A4F817150000130545ACEE
:103A9000230FF4F89307A000231EE4F8232414F95D
:103AA000172700002320F798232604F92328B4F8C9
:103AB000232AC4F8232CD4F8EFD0CFB297150000F6
:103AC00093854584171500001305C584EFD08FB189
:103AD000971700009387C72083A7070063860770A6
:103AE0001715000013054585EFD0CFAF37460F00FF
:103AF00013060624971500009385C5891715000045
:103B00001305058AEFD00FAE17150000130545A465
:103B1000EFD04FAD9307401F2326F4F6971900000E
:103B20009389C9D29717000023AA071A971C00008F
:103B3000938C4C1C971D0000938D0D299714000049
:103B40009384C4D20329C4F6171500001305858693
:103B500093050900EFD00FA913051000EFD00F9CBB
:103B6000F32700C0130A1000130C190017170000E8
:103B70002324F71613092000930B1000EFC05F8871
:103B8000EFC0DF8403A6490183C7E90183AE0900C2
:103B900003AE490003A3890083A8C90003A8090153
:103BA00083A6890103D7C901930504FA130504F814
:103BB000232AC4FA230FF4FA232A24F72320D4FB60
:103BC0002322C4FB232464FA232614FB232804FBAA
:103BD000232CD4FA231EE4FA232E74F7EFC05F8E51
:103BE000032644F7133515009717000023AEA70EE0
:103BF000634AC90293172600B387C7009387D7FF8C
:103C00001305060093053000130684F7232CF4F601
:103C1000EFC09F80032644F713061600232AC4F63C
:103C2000E35AC9FC832684F793850D00171500001D
:103C30001305050DEFC04FFF03A50C00EFC0CFE249
:103C4000171700000347070A9307000463FAE754B5
:103C5000130B1004930A30006F008001130B1B003C
:103C6000137BFB0F9717000083C7C70763E667093D
:103C70009305300413050B00EFC05F828327C4F760
:103C8000E31EF5FC9305C4F713050000EFC05F8A3F
:103C900083C7E40103A3040083A8440003A88400AD
:103CA00003A5C40083A5040103A6440183A68401DF
:103CB00003D7C401230FF4FA130B1B00971700005E
:103CC00023A64703232064FA232214FB232404FBA6
:103CD0002326A4FA2328B4FA232AC4FA232CD4FADC
:103CE000231EE4FA137BFB0F9717000083C787FF9F
:103CF000930A0A00E3FE67F7832544F713850A0059
:103D0000130A1A00EFF09FB1032B84F7130D05007F
:103D100093050B00EFF0DFB2930A0500130544F79B
:103D2000232A54F7EFC0CFCDE31A8AE5F32700C06A
:103D30001305000017170000232EF7F8EFC01FFE31
:103D400097170000938707F9171700001307C7F8A4
:103D50000327070083A70700B387E7401717000072
:103D60002328F7F66352F04493071000171700005A
:103D70002326F7F61705000013058569EFD08F8617
:103D8000170500001305C57CEFD0CF8597170000FD
:103D90009387C7F583A50700170500001305C56ABB
:103DA000971400009384C4F4EFD0CF8393055000A0
:103DB000170500001305056BEFD0CF8297170000A1
:103DC000938787F283A50700170500001305456B4D
:103DD000330B6D41EFD00F819305100017050000E4
:103DE00013054568EFD00F809715000083C595EF48
:103DF000170500001305856AEFC0DFFE9305100468
:103E0000170500001305456BEFC0DFFD9715000097
:103E100083C545ED170500001305C56BEFC09FFC7A
:103E2000930520041705000013050569EFC09FFBEB
:103E3000971700009387C7EC83A5070217050000BA
:103E40001305056B9709000093894949EFC09FF955
:103E500093057000170500001305C560EFC09FF8BB
:103E600097170000938747F683A5C76517050000DD
:103E70001305C569EFC01FF7170500001305C56AD4
:103E8000EFC05FF6170500001305C56CEFC09FF586
:103E900083A70C00170500001305856C83A5070098
:103EA000EFC05FF4170500001305456DEFC09FF3E9
:103EB00083A70C00170500001305856F83A5470035
:103EC000EFC05FF293050000170500001305855948
:103ED000EFC05FF183A70C00170500001305056F05
:103EE00083A58700EFC01FF0930520001705000091
:103EF00013054557EFC01FEF83A70C0017050000FF
:103F00001305856E83A5C700EFC0DFED9305100193
:103F10001705000013050555EFC0DFEC83A50C0065
:103F2000170500001305056E93850501EFC09FEB93
:103F3000170500001305C56EEFC0DFEA1705000086
:103F400013058571EFC01FEA83A704001705000061
:103F50001305056183A50700EFC0DFE81705000022
:103F60001305C570EFC01FE883A704001705000004
:103F70001305056483A54700EFC0DFE69305000045
:103F8000170500001305054EEFC0DFE583A7040009
:103F9000170500001305856383A58700EFC09FE424
:103FA00093051000170500001305C54BEFC09FE3F4
:103FB00083A70400170500001305056383A5C70048
:103FC000EFC05FE293052001170500001305854946
:103FD000EFC05FE183A504001705000013058562AB
:103FE00093850501EFC01FE0170500001305456329
:103FF000EFC05FDF832544F7170500001305056B4D
:10400000EFC05FDE930550001705000013058545DE
:10401000EFC05FDD93173B00338B6741B3055B4116
:10402000170500001305456AEFC0DFDB9305D000DC
:104030001705000013050543EFC0DFDA832584F779
:10404000170500001305056AEFC0DFD9930570005E
:104050001705000013050541EFC0DFD88325C4F71D
:10406000170500001305C569EFC0DFD793051000E1
:10407000170500001305053FEFC0DFD6930504F8D0
:104080001705000013058569EFC0DFD5170500008F
:104090001305856AEFC01FD5930504FA17050000C4
:1040A0001305056DEFC01FD4170500001305056E3D
:1040B000EFC05FD31705000013058549EFC09FD2FD
:1040C000971700009387C7C003A90700032AC4F607
:1040D0001305090093050A00EFF08FF6EFF00FE8E3
:1040E00003A6090083A64900EFE0DFED03A609005F
:1040F00083A64900EFE0CFE2EFF00FDE93175A00FE
:10410000B387474193040500139567003305F540D5
:104110001315350033054501930509009717000075
:1041200023A697BA13156500EFF08FF197170000DB
:1041300023ACA7B893850400170500001305856814
:10414000EFC05FCA97170000938707B883A50700E1
:10415000170500001305456AEFC0DFC8130104F618
:104160008320C10913050000032481098324410928
:10417000032901098329C108032A8108832A4108E8
:10418000032B0108832BC107032C8107832C4107D4
:10419000032D0107832DC1061301010A678000006A
:1041A000930A30006FF05FB5170500001305C522B4
:1041B000EFC05FC30327C4F6170500001305453998
:1041C00093172700B387E700939717002326F4F689
:1041D000EFC05FC197170000938747B083A7070020
:1041E000E38207966FF01FB91705000013058517C6
:1041F000EFC05FBF6FF09F8F130101FF2324810089
:1042000023229100232611009304D0061305900465
:1042100017040000130484686F00C00013850400B5
:104220008344140013041400EFC08FBEE39804FE0F
:104230008320C10003248100832441001305F0FF83
:08424000130101016780000079
:10428000000000000000000000000000000000002E
:10429000000000000000000000000000000000001E
:1042A000000000000000000000000000000000000E
:1042B00000000000000000000000000000000000FE
:0842C0000000000000000000F6
:0842C800000000009C4A008088
:0842D000FFFFFFFF00000000EA
:0842D8000000000080842E416B
:1042E0004448525953544F4E452050524F47524123
:1042F0004D2C20534F4D4520535452494E470000FA
:10430000432C2056657273696F6E20322E32000086
:104310004468727973746F6E652042656E63686D70
:1043200061726B2C2056657273696F6E2025730A5B
:104330000000000050726F6772616D20636F6D70D6
:10434000696C656420776974682027726567697392
:1043500074657227206174747269627574650A00ED
:1043600050726F6772616D20636F6D70696C656408
:1043700020776974686F7574202772656769737434
:10438000657227206174747269627574650A000031
:1043900072646379636C6528290000005573696E47
:1043A000672025732C20485A3D25640A0000000030
:1043B000547279696E672025642072756E7320745B
:1043C00068726F756768204468727973746F6E6580
:1043D0003A0A00004D656173757265642074696DF9
:1043E0006520746F6F20736D616C6C20746F206F2B
:1043F000627461696E206D65616E696E6766756C69
:1044000020726573756C74730A00000046696E61F2
:104410006C2076616C756573206F6620746865200A
:104420007661726961626C65732075736564206979
:104430006E207468652062656E63686D61726B3AA8
:104440000A000000496E745F476C6F623A202020BA
:1044500020202020202020202025640A00000000A9
:10446000202020202020202073686F756C6420623B
:10447000653A20202025640A00000000426F6F6C1E
:104480005F476C6F623A20202020202020202020CF
:104490002025640A0000000043685F315F476C6FAD
:1044A000623A202020202020202020202025630A7E
:1044B00000000000202020202020202073686F753D
:1044C0006C642062653A20202025630A0000000009
:1044D00043685F325F476C6F623A202020202020C3
:1044E000202020202025630A000000004172725F16
:1044F000315F476C6F625B385D3A202020202020BE
:104500002025640A000000004172725F325F476C30
:104510006F625B385D5B375D3A2020202025640A9E
:1045200000000000202020202020202073686F75CC
:104530006C642062653A2020204E756D6265725F62
:104540004F665F52756E73202B2031300A000000D9
:104550005074725F476C6F622D3E0A0020205074C9
:10456000725F436F6D703A20202020202020202091
:104570002025640A00000000202020202020202088
:1045800073686F756C642062653A20202028696D1D
:10459000706C656D656E746174696F6E2D646570A5
:1045A000656E64656E74290A00000000202044696D
:1045B0007363723A202020202020202020202020F9
:1045C0002025640A000000002020456E756D5F43C1
:1045D0006F6D703A20202020202020202025640AA2
:1045E000000000002020496E745F436F6D703A2018
:1045F00020202020202020202025640A0000000008
:1046000020205374725F436F6D703A202020202069
:10461000202020202025730A0000000020202020D8
:104620002020202073686F756C642062653A20201A
:10463000204448525953544F4E452050524F4752F0
:10464000414D2C20534F4D4520535452494E470A5B
:10465000000000004E6578745F5074725F476C6FA5
:10466000622D3E0A00000000202020202020202073
:1046700073686F756C642062653A20202028696D2C
:10468000706C656D656E746174696F6E2D646570B4
:10469000656E64656E74292C2073616D652061738D
:1046A0002061626F76650A00496E745F315F4C6FFE
:1046B000633A202020202020202020202025640A6A
:1046C00000000000496E745F325F4C6F633A202037
:1046D00020202020202020202025640A0000000027
:1046E000496E745F335F4C6F633A20202020202096
:1046F000202020202025640A00000000456E756DF2
:104700005F4C6F633A202020202020202020202092
:104710002025640A000000005374725F315F4C6F03
:10472000633A202020202020202020202025730AEA
:1047300000000000202020202020202073686F75BA
:104740006C642062653A2020204448525953544FEB
:104750004E452050524F4752414D2C203127535443
:1047600020535452494E470A000000005374725FB0
:10477000325F4C6F633A2020202020202020202010
:104780002025730A00000000202020202020202067
:1047900073686F756C642062653A2020204448522B
:1047A0005953544F4E452050524F4752414D2C20A3
:1047B00032274E4420535452494E470A000000000D
:1047C0004D6963726F7365636F6E647320666F7299
:1047D000206F6E652072756E207468726F756768E1
:1047E000204468727973746F6E653A20256C640A90
:1047F000000000004468727973746F6E65732070F6
:104800006572205365636F6E643A2020202020205B
:104810002020202020202020202020202020202098
:10482000256C640A000000004448525953544F4E0E
:10483000452050524F4752414D2C20312753542090
:10484000535452494E4700004448525953544F4E16
:10485000452050524F4752414D2C2032274E442084
:10486000535452494E4700004448525953544F4EF6
:10487000452050524F4752414D2C2033275244205F
:10488000535452494E470000286E756C6C29000045
:104890006D6379636C650000496D706C656D656E64
:1048A00074206D61696E28292C20666F6F210A00C3
:1048B0002573203D2025640A00000000636F7265A7
:0448C00000000000F4
:1048C4003CC1FFFFC4C1FFFF48C1FFFFC4C1FFFFDC
:1048D400C4C1FFFFC4C1FFFFC4C1FFFFE0BFFFFFAE
:1048E400C4C1FFFFC4C1FFFF08C0FFFF18C0FFFF22
:1048F400C4C1FFFF30C0FFFF40C0FFFF40C0FFFF47
:1049040040C0FFFF40C0FFFF40C0FFFF40C0FFFFAB
:1049140040C0FFFF40C0FFFF40C0FFFFC4C1FFFF16
:10492400C4C1FFFFC4C1FFFFC4C1FFFFC4C1FFFF77
:10493400C4C1FFFFC4C1FFFFC4C1FFFFC4C1FFFF67
:10494400C4C1FFFFC4C1FFFFC4C1FFFFC4C1FFFF57
:10495400C4C1FFFFC4C1FFFFC4C1FFFFC4C1FFFF47
:10496400C4C1FFFFC4C1FFFFC4C1FFFFC4C1FFFF37
:10497400C4C1FFFFC4C1FFFFC4C1FFFFC4C1FFFF27
:10498400C4C1FFFFC4C1FFFFC4C1FFFFC4C1FFFF17
:10499400C4C1FFFFC4C1FFFFC4C1FFFFC4C1FFFF07
:1049A400C4C1FFFFC4C1FFFFC4C1FFFFC4C1FFFFF7
:1049B400C4C1FFFFC4C1FFFFC4C1FFFFC4C1FFFFE7
:1049C40084C0FFFFA0C0FFFFC4C1FFFFC4C1FFFF3D
:1049D400C4C1FFFFC4C1FFFFC4C1FFFFC4C1FFFFC7
:1049E400C4C1FFFFF0C0FFFFC4C1FFFFC4C1FFFF8C
:1049F400B4BEFFFFB4BFFFFFC4C1FFFFC4C1FFFFCC
:104A040058C1FFFFC4C1FFFF00C1FFFFC4C1FFFFC6
:104A1400C4C1FFFF30C1FFFF44E0FFFF10DEFFFF12
:104A2400B4DFFFFFC4DFFFFFB4DFFFFF78DEFFFF6B
:104A3400B4DFFFFFC4DFFFFF10DEFFFF10DEFFFF68
:104A440078DEFFFFC4DFFFFF30E0FFFF30E0FFFF51
:104A540030E0FFFF78DEFFFF50E8FFFFCCE6FFFF0A
:104A6400CCE6FFFFC8E6FFFFD8E6FFFFD8E6FFFF6E
:104A74006CE6FFFFC8E6FFFFD8E6FFFF6CE6FFFF2A
:104A8400D8E6FFFFC8E6FFFF30E8FFFF30E8FFFF8E
:104A940030E8FFFF6CE6FFFF00010202030303039B
:104AA40004040404040404040505050505050505BA
:104AB400050505050505050506060606060606069A
:104AC4000606060606060606060606060606060682
:104AD400060606060606060607070707070707076A
:104AE4000707070707070707070707070707070752
:104AF4000707070707070707070707070707070742
:104B04000707070707070707070707070707070731
:104B14000707070707070707080808080808080819
:104B24000808080808080808080808080808080801
:104B340008080808080808080808080808080808F1
:104B440008080808080808080808080808080808E1
:104B540008080808080808080808080808080808D1
:104B640008080808080808080808080808080808C1
:104B740008080808080808080808080808080808B1
:104B840008080808080808080808080808080808A1
:084B94000808080808080808D9
:104B9C001000000000000000017A5200017C0101AD
:104BAC001B0D0200500000001800000048C9FFFF58
:104BBC002006000000440E40748802890392048190
:104BCC000193059406950796089709980A990B9AEC
:104BDC000C9B0D0350010AC144C844C944D244D3B0
:104BEC0044D444D544D644D744D844D944DA44DBDD
:104BFC00440E00440B000000480000006C00000054
:104C0C0014CFFFFF3806000000440E306C8802946D
:104C1C0006810189039204930595079608970998D4
:104C2C000A990B03A4020AC144C844C944D244D310
:104C3C0044D444D544D644D744D844D9440E004433
:104C4C000B0000004C000000B800000000D5FFFF76
:104C5C00C805000000440E3070880289038101925F
:104C6C000493059406950796089709980A990B9A48
:104C7C000C0320010AC144C844C944D244D344D4CF
:104C8C0044D544D644D744D844D944DA440E0044DD
:044C9C000B00000009
:104CA000011B033BF8FEFFFF0300000060C8FFFF8D
:104CB00010FFFFFF80CEFFFF64FFFFFFB8D4FFFFB0
:044CC000B0FFFFFF43
:0400000580003988B6
:00000001FF
