:0200000480007A
:10000000970200009382C20D73905230930000005B
:10001000130100009301000013020000930200008E
:100020001303000093030000130400009304000076
:10003000130500009305000013060000930600005E
:100040001307000093070000130800009308000046
:100050001309000093090000130A0000930A00002E
:10006000130B0000930B0000130C0000930C000016
:10007000130D0000930D0000130E0000930E0000FE
:10008000130F0000930F0000B7E2010073A00230CD
:10009000F322103063D602001305204D6F00504C40
:1000A0009741000093818183173200001302720B85
:1000B000137202FC732540F1131615013302C200BE
:1000C000130115001311110133014100EF104025F8
:1000D00093050500732540F16F10C003130101EF74
:1000E000232211002324210023263100232841004C
:1000F000232A5100232C6100232E7100232081022A
:10010000232291022324A1022326B1022328C10223
:10011000232AD102232CE102232EF1022320010500
:1001200023221105232421052326310523284105F7
:10013000232A5105232C6105232E710523208107D5
:10014000232291072324A1072326B1072328C107CF
:10015000232AD107232CE107232EF107732520340E
:10016000F325103413060100EF009041731015348D
:10017000B72200009382028073A0023083204100E6
:10018000032181008321C100032201018322410157
:10019000032381018323C10103240102832441023B
:1001A000032581028325C10203260103832641031F
:1001B000032781038327C103032801048328410403
:1001C000032981048329C104032A0105832A4105E7
:1001D000032B8105832BC105032C0106832C4106CB
:1001E000032D8106832DC106032E0107832E4107AF
:1001F000032F8107832FC1071301011173002030E2
:100200000325050067800000232005002322050048
:100210006780000097360000938646EC83A746006F
:100220000327050003A647001307170023A2C600F3
:100230008326450023A2D7002322F50023A0B70080
:100240002320E50067800000032745009307050091
:100250008326050083254700032507001736000085
:100260001306C6E723A2B700832546009386F6FF50
:100270002322B7002322E60023A0D70067800000D6
:1002800003270500635AE00217360000130606E54F
:10029000832745001307F7FF83A647002322D500D5
:1002A0008326460023A2D7009736000023AAF6E251
:1002B000E31007FE23200500678000002320B5001F
:1002C00023220500232405002326050023280500FA
:1002D000232A0500232C0500232E05006354B004B7
:1002E00097370000938787DF83A7470013870500B0
:1002F000930600006F0080009307060003A64700E6
:1003000023A0E70023A2D7001307F7FF9386070077
:10031000E31407FE173700002324C7DC2326F5006B
:100320002324B50067800000032785006350E004A4
:1003300097360000938686DA8327C50083A6460099
:100340006F0080009307060003A647001307F7FF1E
:1003500023A2D70093860700E31607FE1737000095
:100360002320F7D82326C5002324050003270501F1
:100370006350E00497360000938646D683274501F4
:1003800083A646006F0080009307060003A647007F
:100390001307F7FF23A2D70093860700E31607FE93
:1003A00017370000232EF7D2232AC5002328050083
:1003B00003278501635CE00297360000938606D22E
:1003C0008327C50183A646006F00800093070600BF
:1003D00003A647001307F7FF23A2D7009386070061
:1003E000E31607FE17370000232CF7CE8325050000
:1003F00023220500232405002326050023280500C9
:10040000232A0500232C0500232E05006354B00485
:1004100097370000938787CC83A747001387050091
:10042000930600006F0080009307060003A64700B4
:1004300023A0E70023A2D7001307F7FF9386070046
:10044000E31407FE17370000232CC7C82326F50046
:100450002324B50067800000130101FF23248100DD
:10046000130405001725000013054573232611000A
:100470002322910023202101EF0050328327040022
:1004800003278400B387E7406356F002930400001B
:10049000172900001309497113050900EF001030F6
:1004A000832704000327840093841400B387E74064
:1004B000E3C4F4FE8324C40063800402172900000F
:1004C0001309C96E83A5040013050900EF00102D60
:1004D00083A44400E39804FE172500001305456D2E
:1004E000EF00D02B8327040003270401B387E740E4
:1004F0006356F00293040000172900001309C96A2B
:1005000013050900EF009029832704000327040145
:1005100093841400B387E740E3C4F4FE83244401CA
:1005200063800402172900001309496883A50400A9
:1005300013050900EF00902683A44400E39804FE0D
:100540001725000013058567EF0050258327040059
:1005500003278401B387E7406356F0029304000049
:10056000172900001309496413050900EF0010233F
:10057000832704000327840193841400B387E74092
:10058000E3C4F4FE0324C4016300040297240000C2
:100590009384C4618325040013850400EF001020B8
:1005A00003244400E31804FE032481008320C100D7
:1005B0008324410003290100172500001305C56E9F
:1005C000130101016F00901D130101FE232C810016
:1005D000232A9100232821012326310123244101CC
:1005E000232E110093071000130A050013090600BB
:1005F0009309070093840500138406006388F504BB
:100600009384F4FF9385040013050A001307040084
:100610009386090013060900EFF01FFB13870900FA
:1006200093060400130609009305100013050A0041
:10063000EFF09FF99307100013070900638AF40095
:1006400013090400130407006FF09FFB1304060056
:1006500013050A00EFF05FE08327440083260400BF
:1006600003274A0083A5470003A607009386F6FFE9
:100670002322B40083A549002320D40083A60900C7
:1006800023A2B70023A2F90023A0C7008320C10141
:10069000938716000324810123A0F9009307170014
:1006A0002322FA0083244101032901018329C10087
:1006B000032A8100130101026780000083250500E1
:1006C0001307850193060501130685006FF0DFEF20
:1006D00083278500130101FF232611006396070A73
:1006E0001307050003250501631E050A032687017C
:1006F00083260700639AC6068327C701638407021F
:1007000083A50700130610006388C5006F008003EF
:1007100003A60700631CB60283A747009385150054
:10072000E39807FE9305100003264700B395D50014
:100730009385F5FF6316B6088320C10013010101FC
:100740006780000013860500930510001725000040
:100750001305454EEF0090048320C100130550009F
:100760001301010167800000938506001725000032
:1007700013050549EF0090028320C10013054000D6
:100780001301010167800000172500001305C54310
:10079000EF00D0008320C1001305200013010101E8
:1007A00067800000172500001305C543EF00007F98
:1007B0008320C10013053000130101016780000090
:1007C000172500001305054BEF00407D1305600061
:1007D0006FF09FF6130101FF2324810023261100EF
:1007E0009307A000130405006300F502B70700FF9C
:1007F00023A087008320C10003248100130500008B
:1008000013010101678000001305D000EFF09FFC89
:10081000B70700FF23A087008320C10003248100C5
:10082000130500001301010167800000130101EBB3
:100830002320A113370D00409307FDFF23248114CB
:10084000232291142320211523261114232E311342
:10085000232C4113232A51132328611323267113B8
:100860002324811323229113232EB1111309050090
:1008700093840500130406002324D1002326F100ED
:1008800003450400930750026304F502630A05065A
:10089000930950026F0080006304050693850400ED
:1008A00013041400E700090003450400E31635FFB4
:1008B00083461400930A140013870A00130B0002E6
:1008C0009309F0FF130AF0FF93050000130550058C
:1008D000130890009387D6FD93F7F70F13041700C2
:1008E0006366F53617260000130606409397270027
:1008F000B387C70083A70700B387C70067800700D7
:100900008320C11403248114832441140329011476
:100910008329C113032A8113832A4113032B011353
:10092000832BC112032C8112832C4112032D01123F
:10093000832DC1111301011567800000930A800007
:10094000232201009307100063C8B7248327810086
:100950009386470083278100930D000083AB070037
:100960002324D10013860A009306000013850B0090
:1009700093850D00EF10D0192328A10093070000E4
:10098000130D0500638CB72F130C41019309100060
:1009900013860A009306000013850B0093850D0053
:1009A000EF10803313860A0093060000930B0500B6
:1009B000938D0500EF10D015832741002320AC0054
:1009C000130D0500938C1900130C4C006386B701BE
:1009D00093890C006FF0DFFBE3FC5BFF63DC4C01F1
:1009E000130AFAFF9385040013050B00E7000900C2
:1009F000E3C84CFF8327C100130A9000B389F900B4
:100A00009399290093070101B38937016F00C00052
:100A100003AD09009389C9FF130570056364AA013A
:100A200013050003938504003305A501E7000900C1
:100A30009307C100E39E37FD6FF09FE413050003A9
:100A400093850400E70009009385040013058007DF
:100A5000E700090083278100930A00012322010097
:100A6000938647006FF01FEF8327810083461700AE
:100A70001307040083A90700938747002324F1008C
:100A8000E35A0AE4138A09009309F0FF6FF09FE428
:100A900083461700130BD002130704006FF09FE387
:100AA0009347FAFF93D7F74183461700337AFA004A
:100AB000130704006FF01FE283461700130B0003B7
:100AC000130704006FF01FE103461700938906FD2A
:100AD00013070400930706FD93060600E362F8FA85
:100AE00093972900B38937011307170093991900C9
:100AF000B389C90003460700938909FD930706FDE2
:100B000093060600E37EF8FC6FF09FF783278100D1
:100B10009385040003A50700938C4700E7000900B4
:100B2000232491016FF0DFD59307100063C4B7163B
:100B30000327810093074700638E0516832B070068
:100B40002324F10093DDFB4163D20D029385040061
:100B50001305D002E700090033077041B336E00007
:100B6000B307B041930B0700B38DD740930AA000A1
:100B7000232201006FF01FDF8346170093851500C5
:100B8000130704006FF01FD5232201009307100004
:100B9000930AA000E3DCB7DA83278100938777000C
:100BA00093F787FF138787002324E10083AB0700B7
:100BB00083AD47006FF01FDB930A00012322010081
:100BC0006FF05FD883461700130704006FF09FD0C3
:100BD0009385040013055002E70009006FF05FCA17
:100BE0008327810083AA0700938C470063880A0C3F
:100BF000635E40079307D0026316FB0E03C50A002D
:100C000063080502130BF0FF63C609009389F9FF1F
:100C1000638E690193850400938A1A00E700090036
:100C200003C50A00130AFAFFE31005FE635C4001E6
:100C3000130AFAFF9385040013050002E700090078
:100C4000E3180AFE232491016FF09FC393850400EB
:100C500013055002E700090013840A006FF05FC219
:100C6000B3865641330ADA40634A400B03C50A0093
:100C7000E30A05FC130BF0FF6FF01FF9E3F65BD1FD
:100C80009307100093090000930C1000E3CA47D5A6
:100C90006FF05FD6832781009387770093F787FFF4
:100CA000138787002324E10083AB070083AD47004F
:100CB0006FF09FE9032781006FF05FE86356400102
:100CC0009307D002631CFB00972A0000938A0AFE58
:100CD00013058002130BF0FF6FF01FF3972A00003B
:100CE000938ACAFC638C090283C70A0063880702DF
:100CF00093871A0033863A016F000001938717002B
:100D000003C7F7FFE30E07F493860700E398C7FED7
:100D1000B3875741330AFA40E35A40F5130AFAFF02
:100D20009385040013050B00E7000900E3000AF4B3
:100D3000130AFAFF9385040013050B00E70009006E
:100D4000E31E0AFC6FF09FF283A705002380A70033
:100D500083A705009387170023A0F5006780000094
:100D600013151500972600009386C63113671500EA
:100D70009307000023A0E60023A2F6006F00000006
:100D80001307B0006302E502371600009727000042
:100D90009387472F130636A79306000023A0C700AA
:100DA00023A2D7006F00000003274604130101F7B8
:100DB00093860500232611089305D0050325860296
:100DC0006302B70C9305204D6300B70C9307F10342
:100DD00093F707FC23A0E700930F000023A2F7017D
:100DE0000323C60223A4A700930E000023A6D70165
:100DF0000328060323A867009303000023AA7700B3
:100E000023AC07019308000023AE17010F00F00F79
:100E100017270000130707272320F700930500007A
:100E20002322B700172700001307C729032507004F
:100E3000832547003365B500E30A05FE130500006E
:100E40002320A700930500002322B7000F00F00F16
:100E500003A5070083A5470083D7060013073000CA
:100E60002324A60293F73700130540006384E700AC
:100E7000130520008320C1083305D50013010109A3
:100E800067800000EFF0DFEDF32700B0631205028A
:100E900017270000130747250327070097260000A0
:100EA000938646E117260000232ED622B387E7401B
:100EB00017270000232AF7226F0000009308D005AF
:100EC000930500001306000073000000730000008B
:100ED0006F00000067800000130101FF23248100E0
:100EE000232611001304050003450500630A0500CD
:100EF00013041400EFF01F8E03450400E31A05FEEF
:100F00008320C100032481001301010167800000D8
:100F1000630405006F00000067800000130101FDFD
:100F200023248102232611021304C1001307B101F7
:100F3000930890006F008000138707009376F500F8
:100F40001398C501135545001306700593F7F60F66
:100F500063E4D80013060003B387C7002300F7003B
:100F60003365A8009307F7FF93D54500E316E4FC2B
:100F70000345C100230E0100630A05001304140099
:100F8000EFF05F8503450400E31A05FE8320C102EC
:100F9000032481021301010367800000130101FC97
:100FA000130341022322B1022324C1022326D102CA
:100FB0001306050093060300170500001305C581FD
:100FC00093050000232E11002328E102232AF102B9
:100FD000232C0103232E110323266100EFF01F852C
:100FE0008320C10113050000130101046780000084
:100FF000130101FB13038103232481022326A10093
:10100000232CC102232ED1021304050013860500F0
:1010100017050000130585D39305C100930603004F
:10102000232611022322F1042320E10423240105B5
:1010300023261105232E6100EFF04FFF8327C10007
:10104000238007000325C1008320C10233058540AA
:10105000032481021301010567800000B3E7C50086
:10106000B367F50093F73700B306C5006384070242
:101070003386C50093070500637ED502938515006E
:1010800003C7F5FF93871700A38FE7FEE318B6FEAB
:1010900067800000E37ED5FE930705009385450039
:1010A00003A7C5FF9387470023AEE7FEE3E8D7FE1B
:1010B0006780000067800000B367C50093F73700C2
:1010C0003306C5006380070293F5F50F930705000B
:1010D0006370C50493871700A38FB7FEE31CF6FE69
:1010E0006780000093F5F50F1397850033E7E5005F
:1010F000931707013367F700E374C5FE93070500F4
:101100009387470023AEE7FEE3ECC7FE678000004D
:1011100067800000130101F8232A91062328210784
:101120001309020093040200B304994013860400DB
:10113000232631072324410793090500138A05005C
:1011400013050200972500009385C5FD232E110687
:1011500023225107232C8106930A0200EFF01FF08F
:1011600013060200330626419305000033859A00DA
:10117000EFF09FF493050A0013850900EFF05FD9A3
:101180009305000013050000EF1090029727000060
:10119000938787F583A607009304050063960600EE
:1011A00013850400EFF09FD197270000938787F302
:1011B0001304F10303A60700137404FC9725000031
:1011C000938545B113050400EFF09FE26318050015
:1011D0006FF01FFD13041400EFF0CFDF0345040090
:1011E000E31A05FE6FF0DFFB83470500638E0700FF
:1011F000930705009387170003C70700E31C07FE4A
:101200003385A74067800000130500006780000059
:101210006384050283470500638A0702B306B500AD
:10122000930705006F00C00003C70700630A0700AB
:1012300093871700E39AD7FE1385050067800000A7
:10124000B385A74013850500678000009305000063
:101250006FF09FFE130515008347F5FF938515007A
:1012600003C7F5FF63880700E386E7FE3385E740A1
:1012700067800000930700006FF05FFF9307050091
:101280009385150003C7F5FF93871700A38FE7FE2B
:10129000E31807FE6780000083470500130700027C
:1012A0006398E7001305150083470500E38CE7FE0C
:1012B000138757FD1377D70F630207048346050092
:1012C0009307050013060000638806041305000059
:1012D00093871700938506FD1317250083C6070023
:1012E0003305A700131515003385A500E39206FE0C
:1012F000630406003305A0406780000083461500A4
:10130000938737FD13B6170093071500E39006FC8B
:10131000130500006FF0DFFD13050000678000007B
:10132000B717000083A7C700370380009306300675
:1013300003C70700172600001306869A930F700153
:10134000130333011308B0079302D007930EB003C1
:101350009308F002630E070E13050700130E75FFC6
:10136000137EFE0F335FC30193850700137F1F00B9
:1013700063E6CF1763160F14638616036314D50252
:10138000930606009386160003C506009385150094
:10139000630C0514630A151503CE050063040E00E3
:1013A000E302C5FF630A070B6300D7219387170089
:1013B00003C70700E31807FE83460600E39C06F810
:1013C000630807083706800093057001130636018D
:1013D000130777FF1377F70FB356E60093F616005F
:1013E00063E4E5006398061A83C607006382060675
:1013F000138776FF1376F70F9306700163E2C61228
:10140000B706800093863601B3D6C60093F6160061
:1014100063880610370680009305700113063601B5
:101420001377F70FB356E60093F6160063E4E50072
:101430006392061203C70700630C07009306B00708
:10144000630ED7169387170003C70700E31A07FE3A
:101450001305F0FF6780000003CE17009385170087
:10146000834606001305100013070000938705004C
:1014700063100E026FF09FF463145E021305F5FF14
:10148000E30E07F26304050293850700130E0700BD
:1014900003C7150093871500E3100EFF1305150011
:1014A000E31407FEE39806EA6FF09FF1E318D7F123
:1014B00003C7250093872500E39E06E86FF05FF0E1
:1014C0009385150003C50500130E75FF137EFE0FEF
:1014D000335FC301137F1F00E3FECFE9E38416ED02
:1014E000E31E05E86FF01FEC83C60500938676FFC8
:1014F00093F6F60FE3E8DFEAB356D30093F616004F
:10150000639806006FF01FEA6380150713860600D4
:101510008345160093061600E39805FE6FF09FEAD8
:1015200037068000130870011306360193871700F1
:1015300083C60700138776FF1375F70FB355A60010
:1015400093F51500E38606F0E362A8FEE38005FE4E
:101550006FF05FEC9387170083C60700E38A06EEFF
:10156000138776FF6FF0DFEB83C6160013062600A5
:10157000E38A06E4630A07019387170003C707009D
:10158000E30807ECE31A07FF03C717009387170068
:101590006FF05FDC9387170003C70700E31A07E2C9
:1015A0001305F0FF678000008346060003C717009D
:1015B00093871700E39006DA6FF09FE003C71700E8
:1015C00093871700E30607E8370380001305000040
:1015D0009308B0071308B003130ED007930E7001E1
:1015E0001303330163061705630A07019387170086
:1015F00003C70700E31807FE6780000003C7170052
:10160000938717006308070A930677FF93F6F60F90
:101610003356D3001376160063EEDE06631C060411
:101620001305150003C70700E30807FCE31E17FBBB
:1016300083C5170093861700638C050613061000F8
:101640006F00C0016394C5031306F6FFE30607FAB3
:1016500063080604938607009305070003C7160076
:1016600093871600E39015FF13061600E31407FE98
:10167000678000009387170003C70700E30E07F693
:10168000930677FF93F6F60F3356D30013761600C2
:10169000E3F6DEF813051500E316C7F967800000CE
:1016A000E31407F79387260003C726006FF09FF522
:1016B0006780000067800000130101FC232C810279
:1016C000232A910223282103232E110223263103EA
:1016D000232441032322510323206103232E71017C
:1016E000232C8101232A91012328A1012326B10162
:1016F00093840500130405001309000063CE05164A
:1017000063DA06003306C040B337C000B306D040EA
:10171000B386F640138A060093090600930A040074
:10172000938B04006396062463F4C416B707010084
:101730006376F62C9307F00F1307060063F6C700D5
:1017400013578600130A80009727000083A7479845
:10175000B387E70083C7070013050002B38747017B
:10176000330AF540630C0A00B3944401B35BF40000
:10177000B3194601B3EB9B00B31A440113DC090112
:1017800093050C0013850B00EF10401C130B050094
:1017900093050C0013850B00939B0901EF10801635
:1017A00093DB0B019305050013850B00EF10C012AE
:1017B000131B0B0193D70A01B367FB0063F8A70063
:1017C000B387370163E4370163E4A7503384A7404C
:1017D00093050C0013050400EF1040179304050057
:1017E00093050C0013050400EF10C01193050500CC
:1017F00013850B00EF10400E93970A019394040198
:1018000093D70701B3E7F40063FAA700B387370162
:1018100063E6370163F4A700B38737013385A74038
:101820003355450193050000630A09003305A040C4
:10183000B337A000B304B040B385F4408320C103A4
:101840000324810383244103032901038329C10263
:10185000032A8102832A4102032B0102832BC10147
:10186000032C8101832C4101032D0101832DC10033
:1018700013010104678000003304A040B3378000E7
:10188000B304B040B384F4401309F0FF6FF05FE796
:10189000631A06009305000013051000EF10800680
:1018A00093090500B707010063EEF912B7070001BD
:1018B00063E0F93E13D78901130A800197270000DE
:1018C00083A70781B387E70083C7070013050002DA
:1018D000B3874701330AF540631C0A12139C0901C0
:1018E000B384344193DB0901135C0C0193850B0035
:1018F00013850400EF108005130B050093850B0082
:1019000013850400EF10000093050C00EF00D07C5D
:10191000131B0B0193D70A01B367FB0063FAA700FF
:10192000B387370163E6370163F4A700B387370154
:101930003384A74093850B0013050400EF100001CA
:101940009304050093850B0013050400EF00907BC2
:1019500093050C00939A0A01EF0010789394040108
:1019600093DA0A01B3E75401E3FAA7EA6FF01FEA3A
:101970001305040063EAD404B707010063EAF60420
:10198000B707000163ECF63093D586011307800199
:101990009717000083A7C773B387B70083CA0700F0
:1019A00093050002B38AEA00338A554163140A1290
:1019B00063E49600636AC4003305C440B386D44030
:1019C0003334A400B3848640938504006FF0DFE5D0
:1019D0009307F00F63F0D72E93D58600130780008E
:1019E0006FF01FFB9307F00F13870900E3F837ED43
:1019F00013D78900130A80006FF05FECB70700016E
:101A00006364F62A13578601130A80016FF0DFD34F
:101A1000B3994901B3DCF40093DB0901B357F40037
:101A200093850B00B394440113850C0033EB9700AE
:101A3000EF00D071930A050093850B00139C0901F8
:101A400013850C00EF00106C135C0C01930505006E
:101A500013050C00EF005068939A0A0193570B018D
:101A6000B3E7FA00B31A440163FAA700B38737015A
:101A700063E6370163F4A700B3873701B384A74057
:101A800093850B0013850400EF00506C13040500D0
:101A900093850B0013850400EF00D066131B0B0128
:101AA000930505009314040113050C00135B0B014F
:101AB000EF009062B3E4640163FAA400B3843401DC
:101AC00063E6340163F4A400B3843401B384A44016
:101AD0006FF0DFE1B3575601B3964601B3EBD70081
:101AE00033DB540113DC0B01B357540193050C0095
:101AF00013050B00B3944401B3E49700B3194601F6
:101B0000EF00D064130D050093050C0013050B00C6
:101B1000939C0B01EF00105F93DC0C019305050013
:101B2000130B050013850C00EF00105B131D0D0156
:101B300013D704013367ED0033144401637EA7001B
:101B4000330777019307FBFF63607719637EA7165E
:101B5000130BEBFF33077701330DA74093050C0000
:101B600013050D00EF00905E93050C00930D05002A
:101B700013050D00EF00105993940401930505001F
:101B8000130C0500939D0D0113850C0093D40401E3
:101B9000EF009054B3E49D0063FEA400B38474018D
:101BA0009307FCFF63EE741163FCA410130CECFFAD
:101BB000B384740137030100131B0B01336B8B01DA
:101BC0001307F3FFB377EB0033F7E900B384A440C6
:101BD000135B0B0193D809011385070093050700D8
:101BE000EF00904F13080500938508001385070048
:101BF000EF00904E930705009305070013050B00B7
:101C0000EF00904D130705009385080013050B00A6
:101C1000EF00904CB387E70093560801B387D700D5
:101C200063F4E70033056500370701001307F7FF8A
:101C300093D50701B3F7E700939707013378E800DE
:101C4000B385A500B387070163E8B4026384B402D7
:101C5000B307F440B385B4403334F400B384854013
:101C600033955401B3D747013365F500B3D544012B
:101C70006FF09FBBE37EF4FCB3893741B3B7370104
:101C8000B3877701B385F540938709006FF05FFC58
:101C900013D70901130A00016FF05FC293D5060143
:101CA000130700016FF0DFCE13570601130A00017E
:101CB0006FF09FA993850600130700006FF05FCDBA
:101CC000138C07006FF01FEF138B07006FF0DFE836
:101CD000B38737016FF09FAF130101FD2324810209
:101CE000232C4101232611022322910223202103C8
:101CF000232E3101232A510123286101232671015A
:101D00002324810123229101130A05001384050075
:101D1000639E0622938906009304060013090500BA
:101D200063FEC510B7070100938A0500636EF62CA9
:101D3000B7070001636AF6561357860193098001BD
:101D40009717000083A7C738B387E70083C707004A
:101D5000B389370193070002B3873741638C0700CB
:101D60003314F400B3593A01B314F600B3EA89000E
:101D70003319FA0013DB040193050B0013850A00E5
:101D8000EF00D03C130A050093050B0013850A00F1
:101D9000939A0401EF00103793DA0A0193050500C6
:101DA0001304050013850A00EF001033131A0A010B
:101DB00093570901B367FA0063FCA700B387970044
:101DC0001307F4FF63E4970063E8A75213040700C6
:101DD000B389A74093050B0013850900EF00103766
:101DE000130A050093050B0013850900EF009031DD
:101DF000131909019305050093090500131A0A0137
:101E000013850A0013590901EF00102D33692A01C7
:101E1000637EA900338924019387F9FF63669900E3
:101E20009389E9FF6364A9009389070013150401EE
:101E300033653501130C00006F00C016631A0600ED
:101E40009305000013051000EF00D02B930405004C
:101E5000B707010063EEF418B707000163ECF44420
:101E600013D78401930980019717000083A74726A1
:101E7000B387E70083C70700B389370193070002E0
:101E8000B3873741639E0718939B04013304944042
:101E900013DB040193DB0B01130C100093050B0003
:101EA00013050400EF00902A130A050093050B00A8
:101EB00013050400EF00102593850B0013040500A3
:101EC000EF009021131A0A0193570901B367FA0032
:101ED00063FCA700B38797001307F4FF63E4970040
:101EE00063E2A74213040700B389A74093050B00E0
:101EF00013850900EF009025130A050093050B00D8
:101F000013850900EF0010201319090193850B00B8
:101F1000131A0A01135909019309050033692A01AB
:101F2000EF00901B637EA900338924019387F9FF9A
:101F3000636699009389E9FF6364A90093890700A8
:101F400013150401336535016F00C00563E8D5043E
:101F5000B707010063E4F608B707000163E0F63451
:101F600093D78601930580011717000003274716B2
:101F70003307F70083470700130B0002B387B7004E
:101F8000330BFB4063100B1863EC86323336CA0008
:101F900013451600130C00006F00C000130C000066
:101FA0001305000093050C008320C1020324810265
:101FB00083244102032901028329C101032A8101EB
:101FC000832A4101032B0101832BC100032C8100D3
:101FD000832C410013010103678000009307F00F79
:101FE00063F6D72E93D78600930580006FF0DFF756
:101FF0009307F00F13870400E3F897E613D78400E4
:10200000930980006FF05FE69307F00F1307060057
:10201000E3F8C7D213578600930980006FF05FD2B0
:10202000B394F400335C340113DB040193050B001B
:1020300013050C003314F4003319FA00B3593A01B4
:10204000EF00D010B3EA890093050B009309050057
:10205000939B040113050C00EF00D00A93DB0B01E6
:1020600093050500130A050013850B00EF00D00649
:102070009399090193D70A01B3E7F90063FEA7001A
:10208000B38797001307FAFF63E4972663F2A72646
:10209000130AEAFFB38797003384A74093050B0028
:1020A00013050400EF00900A9309050093050B0047
:1020B00013050400EF001005939A0A01930505002B
:1020C000130C05001394090113850B0093DA0A0120
:1020D000EF00900033645401637EA4003304940045
:1020E0009307FCFF636E941E637CA41E130CECFF2D
:1020F00033049400131A0A013304A440336C8A0198
:102100006FF0DFD9B35BF600B3966601B3EBDB008B
:10211000B354F40093D90B01B357FA009385090027
:10212000331464011385040033E48700B31A660195
:10213000EF00D0011309050093850900139C0B01E2
:1021400013850400EF00007C135C0C01930505006F
:10215000930C050013050C00EF000078131909011A
:1021600093570401B367F90063FEA700B3877701B3
:102170001387FCFF63EA771763F8A716938CECFFCD
:10218000B3877701B384A7409385090013850400C2
:10219000EF00C07B13090500938509001385040037
:1021A000EF00407613140401930505009304050025
:1021B0001319090113050C0013540401EF00C07139
:1021C00033648900637EA400330474019387F4FFB1
:1021D000636474116372A4109384E4FF3304740184
:1021E000370E0100939C0C01B3EC9C001307FEFF1B
:1021F00033F8EC0033F7EA003304A44093D80C0121
:1022000093DA0A011305080093050700EF00C06C7C
:102210001303050093850A0013050800EF00C06B47
:10222000130805009305070013850800EF00C06A36
:102230001307050093850A0013850800EF00C069A5
:10224000935703013308E800B387070163F4E700FD
:102250003305C50113D707013305A700636AA4023C
:102260006308A40013850C00130C00006FF09FD3CB
:10227000370701001307F7FFB3F7E700939707014C
:102280003373E30033166A01B3876700E37CF6FC1F
:102290001385FCFF130C00006FF0DFD093D706010D
:1022A000930500016FF05FCC1357060193090001FD
:1022B0006FF01FA913D70401930900016FF0DFBA73
:1022C000130C0000130510006FF0DFCD938706009C
:1022D000930500006FF05FC9938407006FF05FF013
:1022E000138C07006FF01FE1930C07006FF09FE95C
:1022F000130A07006FF05FDA1304E4FFB387970057
:102300006FF01FAD1304E4FFB38797006FF0DFBDDC
:10231000130101FD232481022322910223261102AD
:1023200023202103232E3101232C4101232A510193
:102330002328610123267101232481012322910195
:102340002320A1019384050013040500639606224F
:1023500013890600130B06009309050063FEC512DE
:10236000B7070100938A0500637AF6289307F00FF8
:102370001307060063F6C700135786001309800091
:102380009717000083A7C7D4B387E70083C7070068
:1023900013050002B38727013309F540630C0900D8
:1023A000B3942401B35AF400331B2601B3EA9A0014
:1023B000B3192401935B0B0193850B0013850A006D
:1023C000EF00C058130A050093850B0013850A001F
:1023D000931A0B01EF00005393DA0A0193050500ED
:1023E00013850A00EF00404F131A0A0193D7090121
:1023F000B367FA0063F8A700B387670163E4670176
:1024000063E8A74C3384A74093850B0013050400B1
:10241000EF00C0539304050093850B0013050400DF
:10242000EF00404E9305050013850A00EF00C04AF7
:10243000939709019394040193D70701B3E7F4003C
:1024400063FAA700B387670163E6670163F4A70037
:10245000B38767013385A7403355250193050000F5
:102460008320C10203248102832441020329010243
:102470008329C101032A8101832A4101032B010120
:10248000832BC100032C8100832C4100032D01000C
:102490001301010367800000631A06009305000022
:1024A00013051000EF000046130B0500B7070100ED
:1024B000636AFB12B7070001636CFB3C13578B0187
:1024C000130980019717000083A787C0B387E7002F
:1024D00083C7070013050002B38727013309F540BE
:1024E00063180912931B0B01B3846441935A0B01C7
:1024F00093DB0B0193850A0013850400EF00004570
:10250000130A050093850A0013850400EF00803F3D
:1025100093850B00EF00403C131A0A0193D7090181
:10252000B367FA0063FAA700B387670163E6670140
:1025300063F4A700B38767013384A74093850A003B
:1025400013050400EF0080409304050093850A0002
:1025500013050400EF00003B93850B0093990901DC
:10256000EF0080379394040193D90901B3E7340154
:10257000E3F2A7EE6FF01FEDE3E4D5EEB70701003D
:1025800063E8F604B707000163EAF63013D8860162
:10259000130780019717000083A787B3B38707014C
:1025A00083CA0700130A0002B38AEA00330A5A41B9
:1025B00063120A1263E49600E364C4EA3305C4407C
:1025C000B386D440B335A400B385B6406FF05FE95D
:1025D0009307F00F63F0D72E13D8860013078000FF
:1025E0006FF05FFB9307F00F13070B00E3FC67ED41
:1025F00013578B00130980006FF0DFECB707000161
:102600006364F62A13578601130980016FF05FD7C0
:10261000331B2B0133DCF400935A0B01B357F40046
:1026200093850A00B394240113050C0033EA970044
:10263000EF00C0319309050093850A00931B0B013D
:1026400013050C00EF00002C93DB0B019305050034
:1026500013850B00EF0040289399090193570A0155
:10266000B3E7F900B319240163FAA700B387670140
:1026700063E6670163F4A700B3876701B384A740EB
:1026800093850A0013850400EF00402C1304050015
:1026900093850A0013850400EF00C026131A0A016F
:1026A000930505009314040113850B00135A0A01C6
:1026B000EF008022B3E4440163FAA400B384640110
:1026C00063E6640163F4A400B3846401B384A440AA
:1026D0006FF05FE2B3575601B396460133ECD70073
:1026E000B3D95401935C0C01B357540193850C008A
:1026F00013850900B3944401B3E4970033194601EC
:10270000EF00C024930B050093850C00138509008E
:10271000131D0C01EF00001F135D0D019305050053
:102720009309050013050D00EF00001B939B0B019F
:1027300013D7040133E7EB0033144401637EA70091
:10274000330787019387F9FF63608719637EA716B4
:102750009389E9FF33078701330BA74093850C006A
:1027600013050B00EF00801E930B050093850C00F2
:1027700013050B00EF000019939404019305050065
:10278000130B0500939B0B0113050D0093D404015B
:10279000EF008014B3E49B0063FEA400B3848401C3
:1027A0009307FBFF63EE841163FCA410130BEBFF94
:1027B000B3848401370E010093990901B3E96901DB
:1027C0001307FEFFB3F7E9003377E900B384A440B1
:1027D00093D9090193580901138507009305070050
:1027E000EF00800F1308050093850800138507008C
:1027F000EF00800E13030500930507001385090001
:10280000EF00800D1307050093850800138509006C
:10281000EF00800C935708013303E300B387670090
:1028200063F4E7003305C501370701001307F7FF1D
:1028300093D50701B3F7E700939707013378E800D2
:10284000B385A500B387070163E8B4026384B402CB
:10285000B307F4403334F400B385B440B385854006
:1028600033955501B3D747013365F500B3D545011D
:102870006FF01FBFE37EF4FC33892741B3B7270114
:10288000B3878701B385F540930709006FF05FFCBC
:1028900013570B01130900016FF0DFC213D80601B3
:1028A000130700016FF01FCF135706011309000132
:1028B0006FF01FAD13880600130700006FF09FCD67
:1028C000138B07006FF01FEF938907006FF0DFE8AD
:1028D000B38767016FF01FB31306050013050000EF
:1028E00093F61500638406003305C50093D51500E3
:1028F00013161600E39605FE678000006340050688
:1029000063C6050613860500930505001305F0FF51
:10291000630C060293061000637AB6006358C00089
:102920001316160093961600E36AB6FE1305000010
:1029300063E6C500B385C5403365D50093D6160060
:1029400013561600E39606FE67800000938200008F
:10295000EFF05FFB13850500678002003305A040A0
:1029600063D80500B305B0406FF0DFF9B305B040A0
:1029700093820000EFF01FF93305A040678002004A
:102980009382000063CA0500634C0500EFF09FF7D7
:102990001385050067800200B305B040E35805FECB
:1029A0003305A040EFF01FF63305B040678002000A
:1029B000130770009707000093874773970600007E
:1029C00023A0F6729706000023AAE670970600007F
:1029D00023A8067493063006170600002320D67439
:1029E0009706000093860671170600002322D67012
:1029F0009706000023AC066E9706000093860670CB
:102A000017060000232AD66E930610001706000052
:102A10002322D66E970600009386C66E1706000026
:102A20002320D66E93062000170600002328D66CBC
:102A3000970600009386866D170600002326D66C45
:102A40009306300017060000232ED66A9706000072
:102A50009386466C17060000232CD66A9306400026
:102A6000170600002324D66A970600009386066B9B
:102A7000130101FD170600002320D66A93065000BB
:102A8000170600002328D668232611022320E10020
:102A90002322010023240100232601002328010012
:102AA000232A0100232C0100232E0100930600009D
:102AB0006F0080009307080003A8470023A0E700E9
:102AC00023A2D7001307F7FF93860700E31407FE3E
:102AD000130781019306010113068100930570001D
:102AE000130501002326F100930770002324F10051
:102AF0009708000023A6085FEFD01FAD1305010063
:102B0000EFD09F8213051000EFE0CFBC83250100BA
:102B100013078101930601011306810013050100CB
:102B2000EFD09FAA13050000EFE0CFBA1305010014
:102B3000EFD09F9213050100EFD09FB98320C1020F
:102B40001301010367800000130101FF23248100AA
:102B500023229100232611009304D006130590042C
:102B600017040000130484156F00C00013850400CF
:102B70008344140013041400EFD0DFC5E39804FE6F
:102B80008320C10003248100832441001305F0FF4A
:082B9000130101016780000040
:102B98002020706567413A20000000002E200000C8
:102BA800256420002020706567423A20000000005C
:102BB8002020706567433A20000000004552524FBC
:102BC800523A205065672041206973206E6F742047
:102BD800656D707479210A004552524F523A20505F
:102BE80065672042206973206E6F7420656D70746C
:102BF80079210A00204552524F523A204578706593
:102C08006374656420256420646973637320627546
:102C18007420666F756E64206F6E6C792025642051
:102C28006469736373210A00204552524F523A2057
:102C3800457870656374696E6720646973632025DD
:102C480064206F6E2070656720432062757420666B
:102C58006F756E64206469736320256420696E73E0
:102C680074656164210A0000204552524F523A208F
:102C7800457870656374696E67202564206E756D8C
:102C8800206D6F7665732062757420666F756E644B
:102C980020256420696E7374656164210A00000050
:102CA800286E756C6C2900006D6379636C65000093
:102CB800496D706C656D656E74206D61696E28294B
:102CC8002C20666F6F210A002573203D2025640A99
:0C2CD80000000000636F72650000000047
:102CE400E0DEFFFF68DFFFFFECDEFFFF68DFFFFFD2
:102CF40068DFFFFF68DFFFFF68DFFFFF84DDFFFFA2
:102D040068DFFFFF68DFFFFFACDDFFFFBCDDFFFF17
:102D140068DFFFFFD4DDFFFFE4DDFFFFE4DDFFFF3D
:102D2400E4DDFFFFE4DDFFFFE4DDFFFFE4DDFFFFA3
:102D3400E4DDFFFFE4DDFFFFE4DDFFFF68DFFFFF0D
:102D440068DFFFFF68DFFFFF68DFFFFF68DFFFFF6B
:102D540068DFFFFF68DFFFFF68DFFFFF68DFFFFF5B
:102D640068DFFFFF68DFFFFF68DFFFFF68DFFFFF4B
:102D740068DFFFFF68DFFFFF68DFFFFF68DFFFFF3B
:102D840068DFFFFF68DFFFFF68DFFFFF68DFFFFF2B
:102D940068DFFFFF68DFFFFF68DFFFFF68DFFFFF1B
:102DA40068DFFFFF68DFFFFF68DFFFFF68DFFFFF0B
:102DB40068DFFFFF68DFFFFF68DFFFFF68DFFFFFFB
:102DC40068DFFFFF68DFFFFF68DFFFFF68DFFFFFEB
:102DD40068DFFFFF68DFFFFF68DFFFFF68DFFFFFDB
:102DE40028DEFFFF44DEFFFF68DFFFFF68DFFFFF31
:102DF40068DFFFFF68DFFFFF68DFFFFF68DFFFFFBB
:102E040068DFFFFF94DEFFFF68DFFFFF68DFFFFF7F
:102E140058DCFFFF58DDFFFF68DFFFFF68DFFFFFBF
:102E2400FCDEFFFF68DFFFFFA4DEFFFF68DFFFFFBC
:102E340068DFFFFFD4DEFFFF000102020303030388
:102E44000404040404040404050505050505050536
:102E54000505050505050505060606060606060616
:102E640006060606060606060606060606060606FE
:102E740006060606060606060707070707070707E6
:102E840007070707070707070707070707070707CE
:102E940007070707070707070707070707070707BE
:102EA40007070707070707070707070707070707AE
:102EB4000707070707070707080808080808080896
:102EC400080808080808080808080808080808087E
:102ED400080808080808080808080808080808086E
:102EE400080808080808080808080808080808085E
:102EF400080808080808080808080808080808084E
:102F0400080808080808080808080808080808083D
:102F1400080808080808080808080808080808082D
:102F2400080808080808080808080808080808081D
:082F3400080808080808080855
:102F3C001000000000000000017A5200017C010129
:102F4C001B0D0200500000001800000060E7FFFF9E
:102F5C002006000000440E4074880289039204810C
:102F6C000193059406950796089709980A990B9A68
:102F7C000C9B0D0350010AC144C844C944D244D32C
:102F8C0044D444D544D644D744D844D944DA44DB59
:102F9C00440E00440B000000480000006C000000D0
:102FAC002CEDFFFF3806000000440E306C880294B4
:102FBC000681018903920493059507960897099851
:102FCC000A990B03A4020AC144C844C944D244D38D
:102FDC0044D444D544D644D744D844D9440E0044B0
:102FEC000B0000004C000000B800000018F3FFFFBD
:102FFC00C805000000440E307088028903810192DC
:10300C000493059406950796089709980A990B9AC4
:10301C000C0320010AC144C844C944D244D344D44B
:10302C0044D544D644D744D844D944DA440E004459
:04303C000B00000085
:10304000011B033BF8FEFFFF0300000078E6FFFFD3
:1030500010FFFFFF98ECFFFF64FFFFFFD0F2FFFFC0
:04306000B0FFFFFFBF
:103080000000000000000000000000000000000040
:103090000000000000000000000000000000000030
:1030A0000000000000000000000000000000000020
:1030B0000000000000000000000000000000000010
:0830C000000000000000000008
:0830C800000000003C2E008016
:0830D000FFFFFFFF00000000FC
:04000005800029B09E
:00000001FF
