:0200000480007A
:10000000130101FE232E1100232C81001304010291
:1000100093070500A307F4FE0347F4FE9307A0002F
:100020006318F7001305D00097000000E780000078
:10003000B70700FF0347F4FE23A0E700130000000A
:100040008320C101032481011301010267800000A4
:10005000130101FE232E1100232C81001304010241
:100060002326A4FE6F0000028327C4FE1387170017
:100070002326E4FE83C707001385070097000000CE
:10008000E78000008327C4FE83C70700E39E07FCC8
:10009000130000008320C101032481011301010228
:1000A00067800000130101FF232611002324810033
:1000B00013040101B7070000138507009700000033
:1000C000E780000093070000138507008320C1002C
:0C00D0000324810013010101678000007F
:040000058000000077
:00000001FF
